:020000021000EC
:10000000370101001301010BE7000100130000009C
:1000100000000000000000000000000000000000E0
:10002000232E11FE232C51FE232A61FE232871FE6C
:100030002326A1FE2324B1FE2322C1FE2320D1FECC
:10004000232EE1FC232CF1FC232A01FD232811FDA2
:100050002326C1FD2324D1FD2322E1FD2320F1FD30
:10006000130101FCEF20000E8320C10383228103D2
:1000700003234103832301030325C1028325810256
:1000800003264102832601020327C1018327810140
:100090000328410183280101032EC100832E810022
:1000A000032F4100832F010013010104730020304E
:1000B00097110000938101401711000013018188FE
:1000C00013850185938501B36308B50023200500DE
:1000D000130545006FF05FFF17750000130545E835
:1000E0001301C1FF97750000938585E7630EB50086
:1000F00083260500130545002320A100E7800600A4
:10010000032501006FF01FFE1301410037150000A9
:100110001305058873104530EF5080006F00000014
:1001200000000000000000000000000000000000CF
:0401300000000000CB
:10094000982F8A4291443771CFFBC0B5A5DBB5E93A
:100950005BC25639F111F159A4823F92D55E1CABAE
:1009600098AA07D8015B8312BE853124C37D0C553C
:10097000745DBE72FEB1DE80A706DC9B74F19BC184
:10098000C1699BE48647BEEFC69DC10FCCA10C2474
:100990006F2CE92DAA84744ADCA9B05CDA88F97658
:1009A00052513E986DC631A8C82703B0C77F59BFC2
:1009B000F30BE0C64791A7D55163CA0667292914EE
:1009C000850AB72738211B2EFC6D2C4D130D38538B
:1009D00054730A65BB0A6A762EC9C281852C72924D
:1009E000A1E8BFA24B661AA8708B4BC2A3516CC77B
:1009F00019E892D1240699D685350EF470A06A10B4
:100A000016C1A419086C371E4C774827B5BCB03402
:100A1000B30C1C394AAAD84E4FCA9C5BF36F2E68A0
:100A2000EE828F746F63A5781478C8840802C78C2F
:100A3000FAFFBE90EB6C50A4F7A3F9BEF27871C632
:100A400038370100943801009C380100A4380100B7
:100A5000AC3801009739696A85D5489FADF1F83502
:100A6000108B05CCB6A5BE15365E414380A5585AFD
:100A70005EF93D844152414445585F4445564943DF
:100A8000455F444148656C6C6F2066726F6D200055
:100A9000767000005F6170702052697363562100A8
:100AA0000056033E0833102D202830265022C8203F
:100AB000EB7E00EC0D7E00F1AB7C00F6907A00FB43
:100AC0008577000056730005E26D000A2367000F6A
:100AD0003E5F00147B560019414D001EFF4300236A
:100AE000193B0028DB32002D732B0032F324003732
:100AF0005A1F003C961A0041921600463413004BD0
:100B000063100050090E0055110C005A6C0A005F6A
:100B10000A0900640001020203030303040404043D
:100B20000404040405050505050505050505050579
:100B30000505050506060606060606060606060659
:100B40000606060606060606060606060606060645
:100B50000606060607070707070707070707070729
:100B60000707070707070707070707070707070715
:100B70000707070707070707070707070707070705
:100B800007070707070707070707070707070707F5
:100B900007070707080808080808080808080808D9
:100BA00008080808080808080808080808080808C5
:100BB00008080808080808080808080808080808B5
:100BC00008080808080808080808080808080808A5
:100BD0000808080808080808080808080808080895
:100BE0000808080808080808080808080808080885
:100BF0000808080808080808080808080808080875
:100C00000808080808080808080808080808080864
:100C10000808080880000000000000000000000034
:100C200000000000000000000000000000000000C4
:100C300000000000000000000000000000000000B4
:100C400000000000000000000000000000000000A4
:100C50000000000000000000000000000000000094
:100C60000000000000000000000000000000000084
:100C70000000000000000000000000000F00000065
:100C80000000000000000000000000000000000064
:100C90000000000000000000000000000000000054
:100CA00000000000000000000E0000000000000036
:100CB000803801008038010001000000FFFF0000C3
:100CC000FFFF0000FFFF0000FFFF0000FF7F0000AC
:100CD000000804000004040000000400FFFF0000FE
:100CE000FFFF0000FFFF00000008040000000000FC
:0C0CF000A00FE803C8000000190000007D
:100FE0001000000000000000017A5200017C0101A5
:100FF0001B0D020010000000180000006C550000DE
:10100000EC04000000000000100000002C000000B4
:0C101000445A0000A00400000000000092
:10101C00930780023305F502B70703001305550843
:10102C00131525003385A7008327050013D78740A8
:10103C0093D6C7401376F70093F6F60037470100B6
:10104C0093F7F70F3305D600130707883305E5022E
:10105C0013871700938727003307C702B387D7027C
:10106C00B307F7003345F50267800000B788FFFF30
:10107C003385A500938858006314B5006780000081
:10108C0013038000130710000358060083C60500E5
:10109C0093171800B376D70093970701B336D00097
:1010AC001358F80093D70701639006031317170022
:1010BC002310F6001303F3FF1377F70FE31603FC6B
:1010CC00938515006FF05FFBB3C717016FF01FFE20
:1010DC0013071030B757020023A2E700375702005E
:1010EC008327470093F70710E39C07FE67800000F7
:1010FC0013070002B757020023A0E704375702007A
:10110C008327070493F71700E39C07FE6780000012
:10111C0013070001B757020023A0E704375702005A
:10112C008327070493F71700E38C07FE6780000002
:10113C0013070030B757020023A2E700375702000D
:10114C008327470093F70710E39C07FE6780000096
:10115C00B75702001307300023A4E70237E7040057
:10116C001307072023A6E7021307800223A8E70230
:10117C001307001923A8E70423AAE7041307003276
:10118C0023ACE70467800000130101FD9387350051
:10119C00232E3101232C410193890500130A0500EC
:1011AC001306E1009305D10013051000232611024C
:1011BC00A306F10023248102232291022320210380
:1011CC0023170100EFF09FEA1306E10093050A00D4
:1011DC0013850900EFF09FE937140000EFF05FF37F
:1011EC0037590200930784BC2320F900EFF05FEE1F
:1011FC008324C90093F4F40F63860402EFF05FEFCD
:10120C00130500008320C1020324810283244102C0
:10121C00032901028329C101032A8101130101035E
:10122C0067800000930734B02320F900EFF05FEAE9
:10123C008347D100130404B0B3E787002320F900DF
:10124C00EFF01FE93759020063E034058347E100F2
:10125C00B7540200B3E7870023A0F400EFF05FE778
:10126C008357E10093D7870033E4870013140401FC
:10127C001354040123A08400EFF09FE5EFF05FE727
:10128C00130510006FF01FF8B3079A0083C707000F
:10129C0093841400B3E787002320F900EFF05FE399
:1012AC006FF09FFA130101FD232611022324810202
:1012BC002322910223202103232E3101232C4101CF
:1012CC0093890500130A050037190000EFF05FE45D
:1012DC00B7540200930799BC23A0F400EFF05FDF32
:1012EC0003A4C4001374F40F63060402EFF05FE070
:1012FC00130500008320C1020324810283244102D0
:10130C00032901028329C101032A8101130101036D
:10131C00678000001309F9BF23A02401EFF05FE1FF
:10132C0083A784001307400093F7F70FA306F1007F
:10133C006396E70A930710006382F90A23A024013D
:10134C00EFF01FDF03A48400EFF09FDA23008A0084
:10135C006FF01FFA23209900EFF09FDD032789001F
:10136C00B3078A00130414002380E700E36434FFFE
:10137C003754020023209400EFF09FDB03298400F4
:10138C0023209400EFF0DFDA03248400EFF05FD623
:10139C001306E1009305D10013051000231701007B
:1013AC00EFF0DFCC138509001306E10093050A006A
:1013BC00EFF0DFCB8357E1001379F90F1305000031
:1013CC0013F7F70FE318E9F21374F40F13D5870032
:1013DC003305A440133515006FF0DFF1B71400008E
:1013EC009384F4BF375902006FF05FF8130101FFCB
:1013FC0023261100EFF0DFD1B7170000938707B059
:10140C00375702002320F700EFF09FCCEFF05FCEB0
:10141C00B707030083A68700B787010037060300D0
:10142C009387F769032786003307D740E3FCE7FE71
:10143C008320C1001301010167800000130101FF2B
:10144C00232611002324810023229100371400004D
:10145C00EFF01FCC930784BCB754020023A0F40018
:10146C00EFF01FC783A7C40093F7F70F639807002B
:10147C00130414B023A08400EFF09FCB032481004D
:10148C008320C10083244100130101016FF05FC66A
:10149C00130101FE930720012304F100834706008A
:1014AC0013753500A304A1002306F1008347160031
:1014BC002315B10013058100A306F1008347260014
:1014CC0093058000232E11002307F100834736007B
:1014DC00A307F100EFF05FCB8320C10113010102E0
:1014EC0067800000130101FC232C8102232A910246
:1014FC002328210313040500138905009304060017
:10150C00930500001306000213050101232E11029E
:10151C0013743400EF30503E93072001136404F829
:10152C001307C1002306F100A30681002317210134
:10153C009307000013050700930600023386F4009E
:10154C00034606009387170013071700A301C70073
:10155C00E396D7FE93054002EFF01FC38320C1032F
:10156C000324810383244103032901031301010490
:10157C0067800000130101FE232E11003335A000FB
:10158C0063860500136505F81375F50FA306A10016
:10159C00930770011305C100930540002306F10069
:1015AC0023170100EFF05FBE8320C101130101027C
:1015BC0067800000930510006FF0DFCE130101FF70
:1015CC0023261100232481002322910023202101B2
:1015DC00B714000013090500EFF09FB3938734B2E2
:1015EC00375402002320F400EFF09FAE8327C40091
:1015FC0093F7F70F639407069384F4BF23209400AA
:10160C00EFF01FB3832784002300F90023209400FC
:10161C00EFF01FB283278400A300F900232094006D
:10162C00EFF01FB1832784002301F90023209400DD
:10163C00EFF01FAA83278400A301F900EFF05FAB42
:10164C00130510008320C100032481008324410072
:10165C00032901001301010167800000EFF05FA96D
:10166C00130500006FF01FFE130101ED1308850038
:10167C00930E01002326811223249112232221137D
:10168C00232031131305850213870E0093070800DE
:10169C0083A607009387470013074700232ED7FE26
:1016AC00E318F5FE9307010293880504938607005F
:1016BC001384070003C7050003C615009385450076
:1016CC0013178701131606013367C70003C6F5FF0E
:1016DC00938646003367C70003C6E5FF13168600E2
:1016EC003367C70023AEE6FEE396B8FC9388070C7D
:1016FC0083A6870303A647009387470093D516015B
:10170C001397F60013D336013367B7009395D600C1
:10171C00B3E565003347B70093D6A60083A5C7FF92
:10172C003347D70083A6070213532601B386B600AE
:10173C003307D7009315960193567600B3E6B6009F
:10174C009315E600B3E56500B3C6B6001356360034
:10175C00B3C6C6003307D70023AEE702E39AF8F806
:10176C008329C10103238101832F410183250101B9
:10177C000329C100032F81008328410003260100A7
:10178C00B7120100130E0000938202949303001011
:10179C0013D765009396A501B366D70093D7B50010
:1017AC0013975501B3E7E70033C7F60093D69501BD
:1017BC0093977500B3E7D700B347F700B306C4019E
:1017CC003387C20183A6060003270700130E4E00C1
:1017DC003307D700B387E7003347F3013377B700FC
:1017EC0033476700B387E700B38737019316E601E9
:1017FC00135726003367D700B304F9009356D6006D
:10180C0013193601B3E62601B346D7001359660106
:10181C001317A6003367270133C7E600B36616011A
:10182C0033791601B3F6E601B3E626013307D70088
:10183C00B307F7009309030013090F00631C7E0420
:10184C00232E610023289100232CF101232AB100BF
:10185C002320F1002322C100232411012326E101BE
:10186C008327080003A70E0013084800938E4E0030
:10187C00B387E700232EF8FEE31405FF0324C112FF
:10188C0083248112032941128329011213010113AC
:10189C0067800000138F080013830F009308060065
:1018AC00938F050013860700938504006FF05FEE9D
:1018BC00130101FE232C8100232A910023282101EE
:1018CC0023263101232E110023244101232251010F
:1018DC00232061018327050093040500138905006B
:1018EC0093F9F703B387C7002320F5001304060010
:1018FC0063F8C70083274500938717002322F50060
:10190C0063800904130A0004330A3A41636A4403EE
:10191C00938A84029305090013060A0033853A0161
:10192C00EF30407B93850A0013850400130404FCFC
:10193C0033848900EFF05FD3330949019309000028
:10194C00130A0400330B8900930AF0036F000001A3
:10195C0013850400EFF05FD1130A0AFCB3054B4169
:10196C00E3E84AFF13566400930700FC93156600E6
:10197C003306F602B305B90033068600630A060285
:10198C0013858402032481018320C1018324410136
:10199C0003290101032A8100832A4100032B010042
:1019AC00330535018329C100130101026F308072A8
:1019BC008320C101032481018324410103290101F6
:1019CC008329C100032A8100832A4100032B0100D3
:1019DC001301010267800000B7E7096A93877766F5
:1019EC002324F500B7B767BB938757E82326F50088
:1019FC00B7F76E3C938727372328F500B7F74FA529
:101A0C009387A753232AF500B7570E519387F727CF
:101A1C00232CF500B777059B9387C788232EF500F9
:101A2C00B7E7831F9387B79A2320F502B7D7E05BFC
:101A3C00938797D123200500232205002322F5024A
:101A4C0067800000630406006FF09FE6678000006B
:101A5C00130101FE232C8100232A9100232E110057
:101A6C000326050083274500130405001357D601F0
:101A7C0093973700B3E7E70093D687012304D1008F
:101A8C0093D60701A304D10093968700939707017F
:101A9C0093D7070193D7870013173600B3E7F600E7
:101AAC002315F100935787012306F1009357070183
:101ABC001317070113570701A306F10013578700EB
:101ACC009317B60033E7E7002317E1001376F6030C
:101ADC00930770039384050063E0C7169307800394
:101AEC00B71501003386C74013050400938545C123
:101AFC00EFF05FF5930581001305040013068000D9
:101B0C00EFF01FDB8347B4002380F4008357A4005D
:101B1C00A380F4008327840093D787002381F400EB
:101B2C0083278400A381F4008347F4002382F4000C
:101B3C008357E400A382F4008327C40093D7870063
:101B4C002383F4008327C400A383F4008347340168
:101B5C002384F40083572401A384F4008327040115
:101B6C0093D787002385F40083270401A385F40011
:101B7C00834774012386F40083576401A386F40021
:101B8C008327440193D787002387F40083274401DC
:101B9C00A387F4008347B4012388F4008357A4017E
:101BAC00A388F4008327840193D787002389F4004A
:101BBC0083278401A389F4008347F401238AF4006A
:101BCC008357E401A38AF4008327C40193D78700C9
:101BDC00238BF4008327C401A38BF40083473402C6
:101BEC00238CF40083572402A38CF4008327040273
:101BFC0093D78700238DF40083270402A38DF40070
:101C0C0083477402238EF40083576402A38EF4007E
:101C1C008327440293D78700238FF4008327440241
:101C2C00A38FF4008320C10103248101832441018B
:101C3C001301010267800000930780076FF05FEAD1
:101C4C00930780023305F5023305B5001315250003
:101C5C00B70503003385A500032505006780000048
:101C6C00930780023305F5023305B50013152500E3
:101C7C00B70503003385A5002320C500678000004D
:101C8C00130101FE232C8100232A9100232E110025
:101C9C0013040500938405002326C100EFF05FFABE
:101CAC000326C100930710008320C1013396C7009F
:101CBC003366A600130504000324810193850400F8
:101CCC0083244101130101026FF09FF9130101FEFE
:101CDC00232C8100232A9100232E110013040500CC
:101CEC00938405002326C100EFF09FF50326C10065
:101CFC00930710008320C1013396C7001346F6FFEB
:101D0C003376A60013050400032481019385040097
:101D1C0083244101130101026FF09FF4130101FEB2
:101D2C00232E11002326C100EFF09FF10326C100E2
:101D3C008320C10193071000B397C70033F5A700A8
:101D4C003335A000130101026780000093071500D2
:101D5C0093D7170013071000130610003387E740C2
:101D6C00636AE6003387F7026340E50213850700D8
:101D7C0067800000B356F50213870700B386F600A0
:101D8C0093D716006FF09FFD9387F7FF6FF09FFDC1
:101D9C00130101FE9307401F232C81003384F502AD
:101DAC0023282101232E1100232A910023263101FF
:101DBC0023244101232251019307F01F130905002D
:101DCC0013040410135494001304040813548400D3
:101DDC0063F487001304F01F130604003304840219
:101DEC009305D00713050900EFF09FE7930400005B
:101DFC00930AF01F370A0080930900103385940270
:101E0C00131525003305A440635405001305000089
:101E1C00EFF0DFF363F4AA001305F01F139604012F
:101E2C003366C500336646019305E00713050900C8
:101E3C0093841400EFF0DFE2E39234FD8320C101C0
:101E4C000324810183244101032901018329C10059
:101E5C00032A8100832A41001301010267800000DC
:101E6C001306401F3386C5029307F01F1306061096
:101E7C001356060163F4C7001306F01F9305C00741
:101E8C006FF01FDE130101FF2324810023261100B4
:101E9C0013040500EFF08FD503258402930504008D
:101EAC00EF10507863080506832604001307100012
:101EBC001305F0FF93059000137677009317260017
:101ECC00B307F40083A707006390A7022322040240
:101EDC00EFF0CFD6130500008320C100032481004E
:101EEC00130101016780000063F0F602130717006D
:101EFC0093860700E312B7FC2320F402EFF00FD413
:101F0C00130510006FF05FFD2322C40293870600B7
:101F1C006FF09FFE23200402232204026FF01FFEA9
:101F2C00130101FE232E110023200500232205009E
:101F3C00232405002326050023280500232A050059
:101F4C00232C0500232E0500232005022322050245
:101F5C002326A100EFF08FC90325C10093050502CC
:101F6C0003258502EF1010728320C10113010102B9
:101F7C006FF0CFCC130101F8232C810693073000AE
:101F8C00232E110623AAF190EFF04FC6371501004E
:101F9C0093050101130545A5EF10501E631A0500AA
:101FAC0003A781828327870193871700232CF700CF
:101FBC009305010113050000EF109077631A0500DB
:101FCC0003A781828327C70193871700232EF7006D
:101FDC0013070000B70703009306000283A507014F
:101FEC00130601033306E6002300B600130717009F
:101FFC00E316D7FE03A78705130600009305100010
:10200C002328E10403A7C705930601051305600007
:10201C00232AE10403A70706232CE10403A74706A0
:10202C00232EE10403A787062320E10603A7C70696
:10203C002322E10603A707072324E10683A747070A
:10204C00130701032326F106EF10D0272326A10046
:10205C00EFF0CFBE0325C100130600009305B000BE
:10206C006302050213050000EFF09FC193071000F7
:10207C0023AAF1908320C1070324810713010108CF
:10208C006780000013050000EFF05FC49307200089
:10209C0023AAF19003A78182832707029387170055
:1020AC002320F7026FF01FFD130101FF2324810091
:1020BC00232611000327050283274502130405007C
:1020CC0013071700939727002320E502B307F500A9
:1020DC0023A0E700EFF08FB183254402032584028F
:1020EC0013060402EF10905F630A05008327440275
:1020FC009387170093F777002322F40203248100BF
:10210C008320C100130101016FF04FB3B726020009
:10211C0003470500631407006780000083A746008F
:10212C0093D7070193F7F70FE38A07FE23A0E60086
:10213C00130515006FF0DFFD130101F4232E110AB6
:10214C00232C810A232A910A2328210B2326310BC5
:10215C002326B1092324410B2322510B2320610B8D
:10216C00232E7109232C8109232A91092328A109E3
:10217C00B707030003A7870083A7819193871700F4
:10218C0023ACF19083A6819183A781821306400032
:10219C009305C00023A4D70083A6018C130500006F
:1021AC0023A0E18CB306D74023A8D70023A6E700D1
:1021BC00EFF0DFB6130650009305C000930905003D
:1021CC0013050000EFF09FB59304050013066000A3
:1021DC009305C00013050000EFF05FB4232C8100C1
:1021EC00232621039306001963160500B756000039
:1021FC00938606E203C7C18B638004246316070031
:10220C001307001923ACE18A03A7818B639E092075
:10221C00630807001307F7FF23ACE18A6F00400146
:10222C00130650009305900013050000EFF05FA516
:10223C00238E918AB707030023AC0702938BC194BA
:10224C009387C194B714000037D901001384418BD4
:10225C00138C0B0123220100232EF1009309100093
:10226C00370A0300938404FA1309094C930A703E4D
:10227C0083274100130700003396F90093073000C1
:10228C0083264A05B3F6C6006384060013071700BD
:10229C009387F7FFE39607FE8327810103260C0043
:1022AC00B336E00083A78191B387C740630A071A4E
:1022BC00034704006316071AB357F9020327810179
:1022CC0003A781912320EC0003A70B001356670092
:1022DC00B387C740B387E70023A0FB0083274100E7
:1022EC002300D40003A7818283A60B0093972700B9
:1022FC00B307F70093D6660023A6D7360327410011
:10230C0083A7C736930C670063E2FA1603A7018212
:10231C008346470D8347570D03274100939787004A
:10232C00B3E7D700B3D7E74093F7170063800714E0
:10233C00130670009305A00013050000EFF01F9E1C
:10234C006306051213860C0093059000130500001C
:10235C00EFF01F938327410013041400938B4B0061
:10236C00938717002322F1000327410093074000B5
:10237C00130C4C00E31EF7EE8327C101376C0000F1
:10238C0013040000138B0702B72726009387075A04
:10239C002326F100130C0C3883A781806362F40EA2
:1023AC00130630009305C00013050000EFF01F97D3
:1023BC00630E050083A7818283A6470A03A707053E
:1023CC006356D70003A7470A23A8E70493878185A0
:1023DC00232AF100938701862328F1008327C1016A
:1023EC00938787092326F1009387418C2324F100DE
:1023FC009387418E2328F1029387C18E232AF10201
:10240C009387C18C232CF1029387C18A138901A273
:10241C00938B8186138B418A930400001304000074
:10242C00232EF1026F00D0409306F01863E0E60211
:10243C00130717006FF05FDE6304070023ACD18A2B
:10244C0003A7818BE39609DCE364D7FE13065000E7
:10245C009305900013050000EFF05F876FF05FDDD0
:10246C00E3FEF4E623A00B006FF05FE713860C008D
:10247C009305900013050000EFF05F856FF09FED62
:10248C001307805D3307E40283A7018293061000D3
:10249C00B387E70003C7E70A6390E6169304400589
:1024AC00B30494029305D00613050400EFF04FF922
:1024BC0093050105EF20503583A781829305E00633
:1024CC00B387970023A0A70413050400EFF04FF780
:1024DC0093050105EF20503383A781829305F00605
:1024EC00B387970023A2A70413050400EFF04FF560
:1024FC0093050105EF20503183A78182B3849700A7
:10250C0023A4A40423A60404130740053307E40200
:10251C0083A78182B387E70083A6070403A7470438
:10252C00E35CD70C83A6070403A78704E350D70EFC
:10253C0003A707049304C000B304940213095001C9
:10254C009309805D23A8E7048327C10113060000CB
:10255C00130A30009387870333092403B384F400F0
:10256C00B309340303A78182B307C9009387C7005B
:10257C0093972700B307F70003A7018283A60701EF
:10258C00930A1600330737018345270D8347370D10
:10259C0093978700B3E7B70093977700E3DCD706F0
:1025AC0083A704009387170023A0F400637AFA0032
:1025BC0013860A009305100613050400EFF04FEC88
:1025CC0013860A0093844400E39E4AF913074005DE
:1025DC003307E40283A78182B387E70003A70705CB
:1025EC00E31E870313064000930510061305040031
:1025FC00EFF0CFED6F00500603C7E70A93063000EB
:10260C00E394E6F09309C006B309340383CAF70ACE
:10261C00B70781FF938707F82328F104370D0100D2
:10262C00930700F8231AF10493070DF093FAFA0FAD
:10263C002316010423070104930C0B00130900005B
:10264C002324F1006368590793065001B306D402A2
:10265C0083A58182130700001308100013053000B6
:10266C009307C104B387E70083C70700638007782B
:10267C0093070105131617003386C700B387E600CE
:10268C00031606009387C70093972700B387F500BE
:10269C0023A8C700639C0A7593074005B307F4028F
:1026AC0003170105B387F50023A2E70423A4E7046D
:1026BC006FF09FE593141900138A140793050A0011
:1026CC0013050400EFF0CFD76358056E93050A008D
:1026DC0013050400EFF0CFD6135585409377F50F13
:1026EC00130710006398E70A93050A00130504000A
:1026FC00138D0407232AF100EFF08FD42328A100B7
:10270C0093050D0013050400EFF08FD38326010110
:10271C00135505419307010893F6F60F137505F051
:10272C00B38497003365D500B38627018327410115
:10273C002398A4FC93050D002386F6FCB707030031
:10274C0083A787001305040023A0FC00EFF04FCFF4
:10275C009304050093050D0013050400EFF04FCE14
:10276C0093074002B307F90293D4044103A7818273
:10277C0093F4F40F137505F0B3E4A40093940401DF
:10278C0093D40441B3873701B307F70023A2972AE8
:10279C006F00000C93062000639AD70C93050A0077
:1027AC0013050400EFF0CFC993840407938504004C
:1027BC002328A10013050400EFF08FC803270101A3
:1027CC009357054193F707F01377F70FB7160000EF
:1027DC00B3E7E70013074002138596BF3307E902FE
:1027EC0083A58182B387A70233073701B385E50040
:1027FC00130504002328E10093D7C74023A6F52A2C
:10280C0093850400EFF0CFC3130D050093850400EE
:10281C0013050400EFF0CFC293540D41137505F06E
:10282C0093F4F40FB3E4A40093940401B7160000DE
:10283C0093D404411385668DB384A40283A781824B
:10284C00032701013387E70093D4C4402328972A38
:10285C001306000093050A0013050400EFF04FC0A7
:10286C0013091900938C4C006FF0DFDD93063000D8
:10287C006394D70A93050A0013050400EFF04FBCCC
:10288C0093840407938504002328A10013050400F6
:10289C00EFF00FBB8327010113550541137505F0AC
:1028AC0093F7F70F3365F50093074002B307F9026E
:1028BC0083A6818293850400B3873701B386F60023
:1028CC0023A4A62A130504002328F100EFF04FB728
:1028DC00130D05009385040013050400EFF04FB6AB
:1028EC0093540D41137505F093F4F40FB3E4A40065
:1028FC009394040193D404411305601AB384A40285
:10290C0003A7818283270101B307F70093D4C44046
:10291C0023AA972A6FF0DFF3930640006398D70A37
:10292C0093050A0013050400EFF08FB1938404079C
:10293C00938504002328A10013050400EFF04FB089
:10294C00832601019357054193F707F093F6F60F91
:10295C00B3E7D70093850400130504002328F10086
:10296C00EFF00FAE130D0500938504001305040062
:10297C00EFF00FAD93540D4193F4F40F137505F074
:10298C0033E5A400832701011315050113550541F7
:10299C00B387A74013076067B387E70213074002AA
:1029AC0083A681823307E90293D7C74033073701E7
:1029BC003387E6002326F72A9307A0983305F50200
:1029CC001355C5402328A72A6FF09FE89306800073
:1029DC006396D708E39EEAE6E31C09E693050A0032
:1029EC0013050400EFF0CFA5930405009305000731
:1029FC0013050400EFF0CFA41355054193F4F40F25
:102A0C00137505F0336595002318A1049305000791
:102A1C0013050400EFF0CFA2930405009305000703
:102A2C0013050400EFF0CFA193D4044193F4F40FF9
:102A3C00137505F093071010B3E4A4002316F104EA
:102A4C0023199104B707030003A787002320EB0089
:102A5C0083A787002322FB006FF09FDF9306900073
:102A6C006398D708E396EADEE31409DE93050A00BF
:102A7C0013050400EFF0CF9C9304050093050007A9
:102A8C0013050400EFF0CF9B1355054193F4F40F9D
:102A9C00137505F03365950093071000231AA104F4
:102AAC002307F104B707030083A7870093050007EA
:102ABC00130504002324FB00EFF08F98930405000A
:102ACC009305000713050400EFF08F9793D404418E
:102ADC0083A7818293F4F40F137505F0B3E4A4007B
:102AEC009394040193D40441B38737016FF01FCA48
:102AFC009306A0006394D708E39CEAD4E31A09D4A4
:102B0C0093050A0013050400EFF08F93930405005E
:102B1C009305000713050400EFF08F9283A78182C1
:102B2C001355054193F4F40F137505F0B387370172
:102B3C003365950023A4A72C930500071305040007
:102B4C00EFF00F90930405009305000713050400A4
:102B5C00EFF00F8F93D4044183A7818293F4F40F89
:102B6C00137505F0B3E4A4009394040193D40441C9
:102B7C00B387370123A6972E6FF09FCD1307B000B4
:102B8C00639EE70693071000E394FACCE31209CC9A
:102B9C0093050A0013050400EFF08F8A93040500D7
:102BAC009305000713050400EFF08F8983A781823A
:102BBC001355054193F4F40F137505F0B3873701E2
:102BCC003365950023A4A72A930500071305040079
:102BDC00EFF00F879304050093050007130504001D
:102BEC00EFF00F8683A7818293D4044193F4F40F02
:102BFC00B3873701A38C97286FF09FC5130700018B
:102C0C006394E70893050A0013050400EFF04F8363
:102C1C00938404071376F50F9385040013050400C1
:102C2C00232AC100EFF0CF819356850193850400D0
:102C3C00130504002328D100EFF08F8013550541B4
:102C4C00137DF50F9385040013050400EFE05FFF7F
:102C5C00130740023307E90283A78182032641014F
:102C6C0083260101135585401375F50F3307370182
:102C7C00B387E700238AC728A38AD728238BA729E1
:102C8C00238CA7286FF0DFBC130710016398E708AB
:102C9C0093050A0013050400EFE09FFA93840407E0
:102CAC001376F50F9385040013050400232AC10045
:102CBC00EFE01FF99356850193850400130504007A
:102CCC002328D100EFE0DFF7130D050093850400F6
:102CDC0013050400EFE0DFF6130740023307E902A7
:102CEC0083A781820326410193540D418326010160
:102CFC0093F4F40F137505F0B3E4A400939404015A
:102D0C0093D4040133073701B387E700A38BC7289B
:102D1C00238DD72823AE97286FF09FB3130720017C
:102D2C00E398E7B293050A0013050400EFE05FF1A6
:102D3C009384040793850400232AA100130504003F
:102D4C00EFE01FF093850400130D0500130504003C
:102D5C00EFE01FEF2328A100938504001305040066
:102D6C00EFE01FEE8327410103270101B706FF00A7
:102D7C0093F7F70F3377D700B3E7E700032781000A
:102D8C0093540D4113150501B3F4E400370700FF0C
:102D9C003375E500130740023307E90283A68182ED
:102DAC00B3E79700B3E7A700330737013387E60093
:102DBC002320F72A6FF0DFA9B707030003A70C0045
:102DCC0083A78700B387E7400327C100E37AF7A8FE
:102DDC0093070108B384970013071000B3872701EA
:102DEC00239884FD2386E7FC6FF09FA71307170039
:102DFC00E318A7866FF04FF183A6470403A7870457
:102E0C006356D70003A747046FF0CFF203A78704DC
:102E1C006FF04FF223A004006FF08FFA83A6070522
:102E2C009307805DB307F40203A701829305100694
:102E3C00130504003307F7000346070D8347170DEE
:102E4C0093978700B3E7C70093977700130640006A
:102E5C0063D0D7FAEFE0DFE213041400130BCB00BE
:102E6C006FF08FD39305200613050400EFE05FDDB0
:102E7C008327010303A7818213060000B387F400A4
:102E8C0003AA070093173400B307F7000327410385
:102E9C0023A04727930510063387E4000327070078
:102EAC0023A2E7268327810083A7070093D9374005
:102EBC00B3093541B389F900832781001305040058
:102ECC0023A0370193D9394063503723EFE05FDB00
:102EDC0013065000930510061305040063DA49210C
:102EEC00EFE01FDA130630009305C0001305000055
:102EFC00EFE0DFE22324A10263000520930710001A
:102F0C00631CF41E83A7818223A4070823A6070849
:102F1C0023A8070823A4070A23A6070A23A8070A3D
:102F2C0023AA070A23AC070A23AE070A23A0070C1F
:102F3C0023A2070C23A4070C23A6070C23A8070C19
:102F4C0023AA070C23AC070C9305400813050400B7
:102F5C00EFE01FCF832701010327010183A707009F
:102F6C002320A7001307F01FB307F540E354F71A0B
:102F7C00938707C0B7190000938909FAB3893703FF
:102F8C0003274101370A100013050400032607002C
:102F9C00930580061309890893575640938B4B0071
:102FAC00130B4B0093D96940B389F940B389C9001D
:102FBC0023203701130740023307E40283A7418221
:102FCC00B309304193844400B387E70003A687021A
:102FDC0083AAC7023386C9023306460113565641EB
:102FEC00EFE01FC8338659031305040093059006C0
:102FFC00130414003306460113565641EFE05FC626
:10300C008327410193874700232AF100832701017D
:10301C00938747002328F1008327C100938747003B
:10302C002326F10083278100938747002324F10096
:10303C0083A78180E368F4E283A741911307200002
:10304C009387F7FFE360F70E03278101939717002F
:10305C0003A6819113870184B307F70083D507007A
:10306C0083A74185B307F640E3E6F50C83C72185BA
:10307C00E38C070AB70703001307300023AEE70001
:10308C008326C102B707030083A7870083A6018CA0
:10309C0003A7818213061000B387D740232AF700B9
:1030AC009305600013050000EFE09FBD8320C10B6A
:1030BC000324810B8324410B0329010B8329C10AAF
:1030CC00032A810A832A410A032B010A832BC10993
:1030DC00032C8109832C4109032D0109832DC1087F
:1030EC001301010C67800000EFE05FBE6FF05FDE44
:1030FC00EFE0DFBD6FF01FDF8327810393054008EE
:10310C0013050400B387F4002322F10283A7070000
:10311C00232EF104EFE0DFB28327C1033387F400E1
:10312C00832707002320A7001307F01FB307F540E0
:10313C006352F76C03270B00938707C01307F7FF45
:10314C002320EB00638C070083A7818203A78700F1
:10315C009387C189B387F40023A0E70083A78189F3
:10316C0013860600138701886394077E9385018973
:10317C0083270B00B385B40083A605009397A700A3
:10318C00B387A700B387D7409386C189B386D40091
:10319C0083A8060093868188638007023718000095
:1031AC00130808FAB387070333889600032808002E
:1031BC0033880841B3C7070333089700B3869600DA
:1031CC002320F80023A0160123200B0023A0A50028
:1031DC00631604009307700223ACF18893868187F1
:1031EC00B386D40083A506003307970093870501A7
:1031FC0013D6574083270700B387C740B387B70060
:10320C0023A0F6009387070193D9574093D7F74132
:10321C00B3C93701B389F94083A7018283C68708F4
:10322C0003C7970893870187131787003367D70065
:10323C001317A700B38797006370375F03A70700C6
:10324C00B7160000938606FA63F2E65C130660007C
:10325C009305100613050400EFE09FA2130740022C
:10326C003307E40283A74182B387E70083A70702F1
:10327C006388070203A70B009356870063FC360193
:10328C0093066010B387D70293D7C700B387E700C4
:10329C0023A0FB0083A70B0093D7870063F6F900EC
:1032AC009399890023A03B0183A70B0013064000D0
:1032BC009305300693D7A7002328F10413050400C7
:1032CC0093070010232CF106EFE05FA5630C0500BB
:1032DC00B7370000938707202328F10493070020B9
:1032EC00232CF1069305F00713050400EFE05F951E
:1032FC0093050008130A050013050400EFE05F9422
:10330C0093051008930A050013050400EFE05F9382
:10331C0093090500130630009305300613050400CD
:10332C00EFE0DF9F630205029305200813050400FC
:10333C00EFE01F91130A05009305300813050400F4
:10334C00EFE01F90930A050013D51A4093571A40CB
:10335C00B387F7023305A5023305F500EFE01F9F95
:10336C001307805D3307E40283A70182930C0500E9
:10337C009305300613050400B387E70083C6670B7B
:10338C0003C7770B13178700B366D70003C7870BE8
:10339C0083C7970B131707013367D70093978701E0
:1033AC00B3E7E7001307500BB387E7022320F102C2
:1033BC00EFE01F891375750063080548130640007C
:1033CC009305300613050400EFE05F956302054694
:1033DC001357FA41B3474701B387E74013D7FA4174
:1033EC00B34A5701B38AEA4063D4FA00938A0700C0
:1033FC0093DCF941B3C93C01B38C994163F45C0192
:10340C00938C0A009307805DB307F40203A7018233
:10341C009309500B3307F7008347670B8346770BF1
:10342C0093968600B3E6F6008347870B93970701C4
:10343C00B3E6D7008347970B93978701B3E7D70081
:10344C0093D78700B3879703B38C3C0393D777004C
:10345C0093DC7C00232AF10493074005B309F402A2
:10346C0003A781821306010513050400B307370176
:10347C0003A707058327C1002328010683A707009C
:10348C0093D6B7403307D7403307F7008327C100E3
:10349C008326C10123A0E70013573740232CE104F6
:1034AC00B7075A00371701002324F106130707CB7F
:1034BC0093172400B30AF70093074002B307F402F2
:1034CC0003A70A009385060583268102B385F500C0
:1034DC00EF0050780327C10583274102832681051D
:1034EC0023A0E70083A7818293D686401357874099
:1034FC00B387370123AAD70423ACE70403270106BB
:10350C0023AEE7040327410523AEE7020327410658
:10351C0023A0E7060327010523AAE70203A70A0055
:10352C0023ACE7020327C1061357874023A4E70601
:10353C00032781061357874023A2E7060327410779
:10354C00832681073307D7021357874023A6E70644
:10355C00834AD1078347E107B33A500163840700DC
:10356C0093EA2A008347C1076384070093EA4A0061
:10357C00130740023307E40283A7418223249903F3
:10358C0013050900B387E70083A74702232CF9042E
:10359C00EF100065130740053307E4029307C002E0
:1035AC0083A68182930C0500B307F4023387E600EF
:1035BC002328A7060327C906B387F60023A4E72010
:1035CC000327890683A6018223A6E7200327090780
:1035DC0023A8E7200327490723AAE7201307805DC8
:1035EC003307E4023387E6008346E70D0346F70D05
:1035FC00131686003366D6008346070E9396060193
:10360C0033E6C6008346170E93968601B3E6C600D2
:10361C0023ACD7208346270E0346370E131686009D
:10362C003366D6008346470E9396060133E6C600F2
:10363C008346570E93968601B3E6C60023AED72079
:10364C000346670E8346770E9396860033E6C600D4
:10365C008346870E0347970E93960601B3E6C60082
:10366C00131787013367D70023A0E7220327C90468
:10367C0023A2E7220327090523A4E72203274905F0
:10368C0023A6E7220327490023A8E7228347E10763
:10369C00638A070213061000930510061305040035
:1036AC00EFE00FDE1306200093051006130504004F
:1036BC00EFE00FDD13063000930510061305040030
:1036CC00EFE00FDC832741060327010283298904DD
:1036DC009397A7001357D700B3D7E70263EC97175C
:1036EC0013071000832741006384E90293075000FD
:1036FC00638009021307200093073000638AE900F6
:10370C0013073000930720006384E900930700003F
:10371C0093064002B306D40203A741823307D700B5
:10372C008326C70163FE9613832CC70113E70A2077
:10373C009399090113064000930530061305040004
:10374C00B3E9E900EFE08FDD63000516930A500B37
:10375C00B38A5C03378A000093DA8A0063EE4A1955
:10376C00130AFAFF930C0A00930A0A001307400588
:10377C003307E40283A7818233065041130504000A
:10378C0093056007B387E70023A2370923AA5707DD
:10379C0023AC570723AE970723A04709EFE04FCC84
:1037AC0013860A001305040093057007EFE04FCB56
:1037BC00330690411305040093058007EFE04FCAD0
:1037CC0013860C001305040093059007EFE04FC916
:1037DC0033064041130504009305A007EFE04FC8E2
:1037EC0013060A009305B00713050400EFE04FC75A
:1037FC006FF08FF5130700E0E3D6E79403270B0077
:10380C0093870740130717006FF09F931307170058
:10381C0023A0E7006FF09FA423A00700130660000D
:10382C009305100613050400EFE04FCA6FF01FA3B9
:10383C0083270102939C1C0093D70701B38797033E
:10384C0093D777006FF01FC193070000930C000013
:10385C006FF05FC093EA0A01938C07006FF01FEBC7
:10386C009387F7FF9306400013E70A01E3E2F6ECB7
:10387C003717010093972700130707A4B387E700B6
:10388C0083A707006780070013E70A026FF05FEA5F
:10389C0013E70A046FF0DFE913E70A086FF05FE93A
:1038AC0013E70A106FF0DFE8B7870000938A0C006B
:1038BC0063E4FC00938AF7FF1357FA41B3474701BF
:1038CC00B387E74063F0570513D52A00135A2A40F3
:1038DC00330A4A033305A50233054541EFE00FC710
:1038EC00B7870000931C2500138AF7FFE3E0FCE880
:1038FC00930C0A006FF09FE7138A0A00938C0A005E
:10390C006FF0DFE6378A0000930C0000130AFAFF11
:10391C006FF0DFE5130700E063DEE7E49387074011
:10392C006FF04FE523890184B707030013071000DC
:10393C006FF0CFF483C7218593C717002389F184D7
:10394C008327810183A7819123AAF1846FF00FF261
:10395C00E31604889387F7FF23ACF1886FF01F8878
:10396C00B707030003A78700B706030083A78600E9
:10397C00B387E740E3ECA7FE67800000130101F476
:10398C00232A910A2328210B93040500138905008F
:10399C00130620029305000013056102232E110A61
:1039AC00232C810AEF104075930760312312F1022A
:1039BC00638E04069385040013060002130581022E
:1039CC00EF1040719305400213054102EFD0CFFB7D
:1039DC0013040500630E0502372509001305057C49
:1039EC00EFF01FF86382040813058104EFD09FBC2D
:1039FC0013040500630605068347810463920706DA
:103A0C00130600029385040013050900EF10806C67
:103A1C00130504008320C10B0324810B8324410B69
:103A2C000329010B1301010C678000009307400070
:103A3C00B70503001307800103A605019306410295
:103A4C00B386F6002380C60093871700E396E7FE43
:103A5C0093071000A302F102930580016FF0DFF6CB
:103A6C00130400006FF0DFFA930500021305410008
:103A7C00EFD05F8313040500E30C05F813058104F4
:103A8C00EFD09FF593054100130581041306000246
:103A9C00EFD05FFB930581021305810413064001EF
:103AAC00EFD05FFA93054102130581041306300031
:103ABC00EFD05FF99305090013058104EFD05FF98E
:103ACC006FF01FF5130101F0232C810E2326310F0B
:103ADC00130405002324410F93090600138A0500E3
:103AEC00130620029305000013056105232A910E8D
:103AFC002328210F232E110E93840600130907008F
:103B0C00EF10805F93078000230AF104A30A81045D
:103B1C00230B4105937724006384070093890400E9
:103B2C001374140063140400930409001305810733
:103B3C002324010223260102231801022309010276
:103B4C00232E01002320010223020102EFD0DFE823
:103B5C00130600029385090013058107EFD09FEE31
:103B6C00938504001306000213058107EFD09FED27
:103B7C00130640009305410513058107EFD09FEC18
:103B8C00130680009305810213058107EFD09FEB8C
:103B9C00130630009305010313058107EFD09FEA4C
:103BAC009385019F130610009385850013058107EB
:103BBC00EFD05FE91306400093050102130581075E
:103BCC00EFD05FE8130620009385019F1305810752
:103BDC00EFD05FE7130620009305E1011305810781
:103BEC00EFD05FE69305410313058107EFD05FE645
:103BFC0093054000631C04009305090013060002A2
:103C0C0013058105EF10004D930540021305410586
:103C1C00EFD08FD7630C05043755050013050573DA
:103C2C00EFF01FD49305000213058107EFD08FE747
:103C3C00630E05022326A100EFD05F800325C1008F
:103C4C009307000093060002130781073307F70060
:103C5C0003460700130741033307F7000347070028
:103C6C006316E60293871700E390D7FE8320C10FFB
:103C7C000324810F8324410F0329010F8329C10ED3
:103C8C00032A810E13010110678000001305000048
:103C9C006FF0DFFD130101FC9307060023170100F1
:103CAC0013078000A306A1002307B100130600022E
:103CBC009385070013050101232C8102232E110289
:103CCC00138406002306E100EF10C0409305400268
:103CDC001305C100EFD04FCB630E0500375505001F
:103CEC0013050573EFF0DFC79305000213050400FD
:103CFC00EFD04FDB8320C1030324810313010104A4
:103D0C0067800000130101FD23229102232021036F
:103D1C0037A9000023248102232E3101232C4101D9
:103D2C00232611021304000093092000130909C46F
:103D3C009384019F130A3000930540001305C100C2
:103D4C002316310123078100A3070100EFD0CFC355
:103D5C00630C050013050900EFF09FC093054000AC
:103D6C0013058100EFD00FD46302340563064405BC
:103D7C00631604008327810023A0F40013041400AD
:103D8C001374F40F93076001E318F4FA8320C10253
:103D9C000324810283244102032901028329C101E6
:103DAC00032A81011301010367800000832781002E
:103DBC0023A2F4006FF09FFC834781002384F4005E
:103DCC006FF0DFFB130101FE13153500B787FFFF02
:103DDC00232C810093872710138405002307A1004F
:103DEC00930540001305C100232E11002316F1008A
:103DFC00A3070100EFD04FB9630E050037A50000F3
:103E0C00130505C4EFF0DFB593050002130504009C
:103E1C00EFD04FC98320C10103248101130101029A
:103E2C0067800000130101FE13153500B787FFFFF3
:103E3C00232C810093872720138405002307A100DE
:103E4C00930540001305C100232E11002316F10029
:103E5C00A3070100EFD04FB3630E050037A5000098
:103E6C00130505C4EFF0DFAF930500021305040042
:103E7C00EFD04FC38320C101032481011301010240
:103E8C006780000013153500131505011355050146
:103E9C00130101FE13860500930505001305200090
:103EAC00232E1100EFD00FE46304050237750600D2
:103EBC001305058AEFF0DFAA1305F100EFD08FEFA1
:103ECC00630605008347F1006384070013050000B7
:103EDC008320C10113010102678000001315350016
:103EEC00B365B50093950501130101FE93D505014A
:103EFC0013052000232E1100EFD08FD96304050287
:103F0C00377506001305058AEFF09FA51305F10020
:103F1C00EFD04FEA630605008347F1006384070086
:103F2C00130500008320C10113010102678000000A
:103F3C00130101FE930750212307A10093054000B4
:103F4C001305C100232E11002316F100A307010055
:103F5C00EFD08FA36302050237950600130505FB0E
:103F6C00EFF01FA01305B100EFD0CFE463060500FE
:103F7C000345B100133515008320C1011301010263
:103F8C00678000001385019F6780000003A7818371
:103F9C009307805DB307F50213182500B307F700EC
:103FAC0083C6F73403C6E7349396860033E6C6001F
:103FBC0083C6073583C717359396060193978701F8
:103FCC00B3E6C600B3E6D70093878193B3870701A6
:103FDC009388060023A0070003A607006346100B76
:103FEC001306B60093071000B397C70013D616003C
:103FFC00B387C700B3D7D70293880194B38808015D
:10400C0023A0F8009307805D3305F5023305A70064
:10401C00034735358347253513178700B367F700FA
:10402C0003474535131707013367F70083475535A9
:10403C009397870133E7E70093878192B387070152
:10404C0023A007001306070083A607006346C004DD
:10405C009386B60093071000B397D700935617407A
:10406C00B387D700B3C7E702138601933306060163
:10407C00939545002320F6009307803EB3D5F502B7
:10408C0023A4B194678000001306160093D818403F
:10409C0023A0C7006FF05FF49386160013561640EA
:1040AC0023A0D7006FF05FFA03A781839307400921
:1040BC00B385F5029307805DB307F502B385F50070
:1040CC00B305B70083C7F53703C5E537939787006A
:1040DC0033E5A7006780000003A681839307805D0A
:1040EC003305F5021307000093084009B306A60038
:1040FC00B3071703B387A700B307F60003C8E73766
:10410C0083C7F73793978700B3E7070163FEB700C0
:10411C0083C7D63603C8C63693978700B3E7070123
:10412C009387F7FF6366F7001305070067800000AD
:10413C00130717006FF0DFFB9307805DB307F502E1
:10414C0003A88183B307F80003C3B73603C7A736A8
:10415C00131383003363E3006304031C03C7773535
:10416C0003CE6735130101FF13178700336EC701A8
:10417C0003C7873583C797351303F3FF131707015D
:10418C003367C70193978701B3E7E7001397C5001F
:10419C0093D557003307B70093D747003357F7022F
:1041AC009305C02E23240100B305B502832781009B
:1041BC0063EC67129307C02EB307F50283258100C9
:1041CC00B387B7009387071B93971700B307F800C3
:1041DC0083C5E70083C7F70093978700B3E7B70061
:1041EC003307F74063540700130700001303C02E76
:1041FC00330565028327810083258100130E90000F
:10420C00B307F5009387171B93971700B307F800B4
:10421C00B305B50003C3E7009385051B83C7F700FF
:10422C00939515003308B8008345F80093978700E1
:10423C00B3E767000343E80093958500B3E5650099
:10424C00B387B7402326F1009307A0043306F60288
:10425C00130300000328810093153300B385C500B8
:10426C00B385A50083AE8183338805011308881BB1
:10427C001318180033880E0183473801034F2801A7
:10428C00931F23009397870033E8E701832781006E
:10429C00032FC1008322C100B385F5009385951BC4
:1042AC0093951500B385BE0083C7350183CE2501D8
:1042BC0093551F0093978700B3E7D701B387074146
:1042CC00B387E702B38FF60113031300B387B7006C
:1042DC00B3D75702B387070123A0FF00E31CC3F732
:1042EC00130101016780000083278100B387F5006B
:1042FC009387171B93971700B307F80003CEE700BB
:10430C0083C7F70093978700B3E7C701E364F7EA25
:10431C0083278100938717002324F1006FF01FE996
:10432C00678000001317250093860194B386E6007E
:10433C0093878193B387E70003A7060093D52500E5
:10434C0083A70700B385E502130710009386570077
:10435C003317D70093876700B385E500B3D5F50015
:10436C0093D78500130770006368F70693871700CF
:10437C0093972700B307F60003A7C7FF83A707008F
:10438C0093F5F50FB387E740B387B70293D7870050
:10439C00B387E7009306805D3305D50203A78183BD
:1043AC003307A70083463735034527359396860098
:1043BC00B3E6A6000345473513150501B366D500D2
:1043CC0003455735131585013365D5003305F502C3
:1043DC001355E50067800000832706026FF09FFBF2
:1043EC00B7170100938707AA1386C19F9385E7002F
:1043FC0083C6070003C7270003C817003307D7403D
:10440C0083C63700630C0700B38606419396A6005B
:10441C0013581740B386060133C7E6022320E60083
:10442C009387270013064600E394B7FC1317250067
:10443C009387C191B387E7001307500C23A0E700C3
:10444C00938741923305F500930710002300F50084
:10445C0067800000130101FE232A9100232821010B
:10446C002326310123244101232E1100232C81000A
:10447C002322510123206101138A050083250600A4
:10448C00930406001309050093D7F54133C6B70012
:10449C003306F64083A9818393874192B307F500D5
:1044AC0083C7070063840730B7150100138805AA7A
:1044BC001305000093070000938505AA13038000E1
:1044CC0083480800939868006356162D93171500BF
:1044DC00B385F50083C70500131525009397670076
:1044EC00B307F6401386C19F3305A60003260500CB
:1044FC00B387C70237160000B387C70003C6150081
:10450C0093D7D74013163600B387C700638C0604C5
:10451C00B7150000938505FA9306C04363FEE502C8
:10452C00374600001306F6E79306C04C6366E602B6
:10453C00931629001386C191B306D60083A60600F4
:10454C003307B7403307D702B72600003307D7002D
:10455C001357E7009306C743B387F60293870720E8
:10456C0093D7A7401307805D3307E90223A2F40217
:10457C0083AA840103A4840083A5440003ABC40074
:10458C003387E900834777368346673693978700EE
:10459C00B3E7D7009397F70063D45701938A0700CA
:1045AC0023AE5401130500006358B00013060A0033
:1045BC0013050900EFF01FD71307805D3307E902DD
:1045CC0023A8A400135525403387E9008347F7350A
:1045DC000346E7358346A73593978700B3E7C700B3
:1045EC000346073613160601B367F6000346173663
:1045FC00131686013366F60083A784023306F6028F
:10460C0083A70402135686403306F60083A74402A0
:10461C003306F6028347B73593978700B3E7D70085
:10462C008346C73593960601B3E7F6008346D73524
:10463C00135686403305C50293968601B3E6F60001
:10464C0083A7819433878A40B386F602B3078B40E5
:10465C003305F540135585409387819293D6464098
:10466C00B386A60213152900B387A70083A50700FC
:10467C009386060893D68640B386660123A6D4009B
:10468C006354070013070000B7078000B3C7C702C5
:10469C00135787401386A5FF9385B5FFB307F70221
:1046AC00138701933307A700032707001305800026
:1046BC0093D7F740B387E702130710003317C700EF
:1046CC00B387E700B3D7B7001307000093051700B3
:1046DC00139625003306CA000326060063E8C714A8
:1046EC0013870500E394A5FE930700401307805D34
:1046FC003309E9028320C10103248101032A8100CB
:10470C00032B0100B389290103C6F93403C7E9342B
:10471C0003290101131686003366E60003C7093529
:10472C00131707013366C70003C719351317870121
:10473C003367C700B307F70293D7270023AAF40007
:10474C00B787FFFFB387FA00B3A7F600B3AADA0066
:10475C0093C71700A38654032386F40283C79936A4
:10476C0003C78936832A410093978700B3E7E70094
:10477C009397F700B3A6D7002387D4028329C100EF
:10478C008324410113010102678000009387080014
:10479C006FF01FD3938817001308280013850700A8
:1047AC00E39668FE930700106FF05FD69306805D6A
:1047BC00B306D502B386D90083C7363603C726366F
:1047CC0003C5463693978700B3E7E70003C7563611
:1047DC00131787003367A700E38605D893060010EC
:1047EC0063C0C602B387E7403386C640B387C702AF
:1047FC009387070893D78740B387E7006FF09FD65E
:10480C00B71600009386069093070010E3CCC6D42D
:10481C00130707F0B387C640B307F7029387074027
:10482C0093D7B740938707106FF0DFD3931527000A
:10483C00330ABA0083250A0063F4B7009387050096
:10484C00B387B740939777003306B640B3D7C70208
:10485C0013177700B387E7006FF05FE90327C500F4
:10486C006300070C03230500930600009308200146
:10487C00338816033308E80083471800034E0800FA
:10488C0093978700B3E7C70163F4B70063EE66083C
:10489C00639866029386F6FF13082001338806039B
:1048AC003308070183471800834808009397870053
:1048BC00B3E717019308200163ECB70893060000D7
:1048CC0093072001B387F602130E2001B307F700FC
:1048DC0083C5170003C8070093958500B3E5050150
:1048EC0013880600B308C803B308170183C7180060
:1048FC0083CE080093978700B3E7D70183CE2800B7
:10490C0083C8380093988800B3E8D80163FCC804C6
:10491C0063646804638CF5041308F8FF6F00C0042B
:10492C002322050067800000938616006FF05FF469
:10493C009386F6FF33881603330807018345180066
:10494C00034E080093958500B3E5C501E39AB7F6CD
:10495C00E39006FE6FF0DFF6E390F5FC1308180009
:10496C006FF05FF8E39AF5FA636468001308F3FFDD
:10497C008347A5006396070C8327450063960701C0
:10498C0083578500638EC70A130320013303680223
:10499C00B307670083C5570083C84700939585000C
:1049AC00B3E51501638C060183C8370083C6270065
:1049BC0093988800B3E8D800636A16092318B500E9
:1049CC0003C7770083C66700131787003367D700C8
:1049DC002319E50003C7970083C6870013178700C8
:1049EC003367D700231AE50003C7B70083C6A700B7
:1049FC00131787003367D700231BE50003C7D700C5
:104A0C0083C6C700131787003367D700231CE50044
:104A1C0003C7F70083C6E700131787003367D70077
:104A2C00231DE50003C7070183C717019397870070
:104A3C00B3E7E700231EF500930710002305F500EC
:104A4C002314C50023220501678000001303E3FE35
:104A5C0033076700034E370083462700131E8E0072
:104A6C00336EDE00E38CC8F50343570083464700E2
:104A7C00B388C841131383003363D300B306C64114
:104A8C0093960601B3D81603B305B3409396080169
:104A9C0093D60601B385D50293D50501B305B34072
:104AAC002318B500834877008345670003C367006C
:104ABC0093988800B3E8B80083C577009395850078
:104ACC00B3E56500B385B840B385D50293D5050130
:104ADC00B385B8402319B5008348970083458700F8
:104AEC0003C3870093988800B3E8B80083C5970088
:104AFC0093958500B3E56500B385B840B385D502C1
:104B0C0093D50501B385B840231AB5008348B70087
:104B1C008345A70003C3A70093988800B3E8B800A7
:104B2C0083C5B70093958500B3E56500B385B840A0
:104B3C00B385D50293D50501B385B840231BB500C9
:104B4C008348D7008345C70003C3C70093988800E8
:104B5C00B3E8B80083C5D70093958500B3E565002D
:104B6C00B385B840B385D50293D50501B385B8405C
:104B7C00231CB5008348F7008345E70003C3E70017
:104B8C0093988800B3E8B80083C5F7009395850027
:104B9C00B3E56500B385B840B385D50293D505015F
:104BAC00B385B840231DB5008345070103471701A2
:104BBC00131787003367B70083C5070183C7170135
:104BCC0093978700B3E7B700B307F740B386D702D4
:104BDC0093D60601B306D740231ED5006FF0DFE550
:104BEC00130101FD2324810223202103232E3101F3
:104BFC00232C41012326110223229102232A510145
:104C0C002328610123267101232481012322910190
:104C1C008327C500130405006384073C8357850173
:104C2C00835665010357250123AAF1828357A501F9
:104C3C008354450193D6160023A8F1828357C501EE
:104C4C00232AD5068346A50023A6F18283570501A6
:104C5C001357170093D4140093D717002326F50687
:104C6C002324E50623289506832CC505032C05066D
:104C7C00832B45066384060E1357770093D7770072
:104C8C0093D474003307E702B387F702935A4700B3
:104C9C00232E5505B384940213DB470023206507AC
:104CAC0093D444002322950663840C028325450388
:104CBC008357240313860C001395050193060000FB
:104CCC003365F50093D50501EF101058930C0500D2
:104CDC0063040C028325C4038357A40313060C003E
:104CEC0013950501930600003365F50093D5050176
:104CFC00EF109055130C050063840B0283254404BC
:104D0C008357240413860B001395050193060000AA
:104D1C003365F50093D50501EF101053930B050087
:104D2C0033879A0393570701232AF402B3078B03A3
:104D3C00131707012328E402B384740313D7070164
:104D4C0093970701232CF402232EE40293D704013A
:104D5C00939404012322F4042320940423050400D7
:104D6C000328840283264403032604031358780083
:104D7C0033080803939786001357860133E7E7003F
:104D8C0093D78601B307F040032E440483AEC1824F
:104D9C00135848003307E840B335E800B387B740F1
:104DAC0083A54183B308B702B387B7023386C80023
:104DBC00B33816012328C402135686003337B702C2
:104DCC008325C403B387E700B387D7008326840306
:104DDC00B388F8009397850013D7860133E7E70073
:104DEC003307E84093D785013335E800B307F0402B
:104DFC00B387A74003A50183232A14033303A70217
:104E0C00B387A702B306D30033B36600232CD402B6
:104E1C003337A702B387E70003270404B387B7002F
:104E2C003303F3001355870193178E0033E5A70066
:104E3C00930730002324F4049397880133E6C700CA
:104E4C00832704063305A84093558E013356F6028A
:104E5C003338A800B305B040B3850541B70701004E
:104E6C00232E64023308D503B385D5033307E8003A
:104E7C00333807012320E4043335D503B385A5006B
:104E8C00B385C501B305B8002322B4040328440735
:104E9C001385F7FF635EF614B707FFFF6354F60044
:104EAC003706FFFF832884053306C5402326C40438
:104EBC001305080063E4C8021316A6003356160344
:104ECC008327C40603258406232404043305F540F4
:104EDC003305C5021355A5003305F500931783015F
:104EEC0093D68600B3E6D7008327C405B3D6F60263
:104EFC00B70701001386F7FF63D0F610B707FFFF63
:104F0C0063D4F600B706FFFF3306D6402328C4044B
:104F1C0063EAC8021316A600335616039307100053
:104F2C002324F4048326040783278406B386F640DF
:104F3C00B386C60293D6A600B386F60063F4A60029
:104F4C001385060083274406939585011357870024
:104F5C0033E7E5003357F702B70601009387F6FFF6
:104F6C006350D70AB706FFFF6354D7003707FFFF1C
:104F7C00B387E740232AF40463E8F8029397A70069
:104F8C00B3D71703130720002324E40403270407D3
:104F9C003308E840B387070393D7A700B387E7002C
:104FAC0063F4A700138507002326A4028320C10203
:104FBC000324810283244102032901028329C101B4
:104FCC00032A8101832A4101032B0101832BC10098
:104FDC00032C8100832C4100130101036780000026
:104FEC002326050623280506232A05066FF05FD71E
:104FFC00130605006FF01FEB930606006FF0DFF051
:10500C00138707006FF0DFF693571540B7160100B2
:10501C0013930701138506AB135303411307800148
:10502C00938606AB9308F0FF03180506131E0701C1
:10503C00135E0E4113161700635E0307130616006A
:10504C00131616003386C6000315060013068001DE
:10505C00630CCE0413071700131727003387E600E1
:10506C00835607000357270023A00500B387D740BA
:10507C003305E540939707011315050113550541B9
:10508C0093D70741B387A7023308D84013180801F8
:10509C0013580841B3C70703B307F700139507016B
:1050AC0013550541678000009307200023A0F500ED
:1050BC00678000001307F7FF1305C5FFE31617F70A
:1050CC009307100037F5FFFF23A0F500130505C06B
:1050DC006780000013030500630E06008383050040
:1050EC00230073001306F6FF1303130093851500BA
:1050FC00E31606FE6780000013030500630A060032
:10510C002300B3001306F6FF13031300E31A06FE85
:04511C0067800000A8
:10512000130101ED2324811283A74182232611124A
:105130002322911223202113232E3111232C4111DC
:10514000232A51112328611123267111232481114F
:10515000232291112320A111232EB10F23A0070098
:1051600083A7818237150100130545A823A20700F4
:10517000EFC09FFA37150100130505A9EFC0DFF94D
:1051800037150100130545A9EFC01FF937270200A5
:10519000232681008327470093D7070193F7F70F52
:1051A000E38A07FE9307A0002320F700B707030058
:1051B00083A947019307300093F939006394F900FC
:1051C00093092000EFB09FF9EFC00FA8B7070300C5
:1051D00083A68700B7870100370603009387F76926
:1051E000032786003307D740E3FCE7FEEFC0CFA0DC
:1051F000EFE01FB203A48182EFE09FD99305050081
:10520000130444021306800013050400EFF05FED61
:1052100083A58182130500009385051BEFE05FBB2A
:10522000630A050083A58182130510009385051D7F
:10523000EFE01FBAEFC04FA183A7818203A7471BEE
:10524000B70700FF631EF70013058108EFC0CFB753
:105250006308050083A781820327810823AAE71A30
:10526000B715010013060001938545A713058105B5
:10527000EFF01FE783A781821307100023A2E70046
:105280008327C10003A741828327070093F71700F4
:10529000E38C07FE13063000930580001305000021
:1052A000EFC0DF9E03A901821306000113058105EB
:1052B00093050900EF101044631C054803470901DA
:1052C000834719019306100093978700B3E7E7001F
:1052D0000347290113170701B367F7000347390193
:1052E000131787013367F70083A781826308D7000C
:1052F0001307300023A2E7006F0000000347890175
:105300008346990193968600B3E6E6000347A90118
:1053100013170701B366D7000347B90113178701B5
:105320003367D700930670006308D7001307300077
:1053300023A2E7006FF05FFC03A6471B0347C901E8
:105340008346D90193968600B3E6E6000347E90158
:1053500013170701B366D7000347F9011317870135
:105360003367D700630AE60083A6471B370700FFB1
:10537000130707106398E63C13058108EFC08FE61A
:1053800083A50182371600001306A6C31305810802
:10539000EFC00FEC9305810613058108EFC00FECF9
:1053A00083A5018283A705026382070203AA818283
:1053B000130680009385050213054A02EF1090330F
:1053C000631E053493070004A388F184EFC0CF82E5
:1053D00003C51185930681061386060093057000A8
:1053E000EFE01F8C2328A100EFC00F8603250101E9
:1053F0006302053403A50182B71700009387A7C392
:105400003305F5001306000293058106EF10902E78
:1054100083A78182631A05301307800023A2E70067
:10542000370703000326870037574C00B7050300F2
:105430001307F7B383A68500B386C640E37CD7FE87
:105440001307100223A0E70003A9018203AA8182A7
:10545000130600029305490613058A15EF10902CD8
:10546000834709060347190613060002930509043A
:10547000131787003367F7008347290613050A19B6
:105480009397070133E7E70083473906939787012E
:10549000B3E7E700232AFA148347590893F7F70F75
:1054A000232CFA16034789088347990893978700A6
:1054B000B3E7E700232EFA168347890303479903CE
:1054C000131787003367F7008347A90393970701F2
:1054D00033E7E7008347B90393978701B3E7E70012
:1054E0002320FA18834749030347590313178700FA
:1054F0003367F700834769039397070133E7E700B2
:105500008347790393978701B3E7E7002322FA18CB
:105510008347C9030347D903131787003367F7008D
:105520008347E9039397070133E7E7008347F903CC
:1055300093978701B3E7E7002324FA188347090309
:1055400003471903131787003367F70083472903BD
:105550009397070133E7E700834739039397870160
:10556000B3E7E7002326FA18EF10D01B834759084A
:1055700063E6F9008349590893F9F90F23A43181AF
:1055800013090000138D07009309805D130AC003FF
:10559000930A900183A781806364F91C938BC18F68
:1055A0009387C18F232EF1021387C1999387418D71
:1055B0002320E102130C07002328F1001387C19078
:1055C000B7170000232AE102938707FA1387418F58
:1055D000938AC190138B418F1389418E9389C18E19
:1055E000138A4190930D0000232CE102930C805DFF
:1055F000232AF10083A6818083A7018263E2DD3242
:1056000083C6A70C03C7B70C131787003367D700EF
:1056100083C6A70B03C6B70B938AC180138901A267
:10562000131686003366D60083C6C70B93090000A5
:10563000130C40029396060133E6C60083C6D70BCF
:1056400093172701130B805D93968601B3E6C6007E
:1056500013D75600B3D7E702930BF0FF930C10005B
:10566000930DA00F23AEF18023A0F18E0327C1007C
:1056700003A6418237F7FFFF130707C02322F60076
:105680003387E70023AEE18C2324E60037070300CD
:10569000232EF70283A7C18D2320F70483A601825E
:1056A00003C6460D83C7560D93978700B3E7C7001F
:1056B000232AF70203AA818063E2494F1306700090
:1056C0009305A00013050000EFC04FDC83A7018203
:1056D0001307300183C7670893F717006384070037
:1056E00013073003131A8A00336AEA00B70703006E
:1056F00023A04703EFB05FD0930581081305A000F6
:10570000EFE00FF313090500631E0556EFB0DFD37A
:10571000130900009309C0036F0000759307700020
:105720002322FA006FF09FCA1307500023A2E7005C
:105730006FF09FBC83A781821307600023A2E7005C
:105740006FF09FBB1307400023A2E7006FF0DFBAA2
:1057500083A781821307200023A2E7006FF0DFB93F
:105760009305A00F13050900EFE01F83B30739036A
:1057700003A7018203A68182B307F70003C7A732FC
:1057800083C6B73293968600B3E6E6003307490333
:105790003307E600232ED70C03C6C73283C6D732A1
:1057A00093968600B3E6C6002320D70E83C6670B08
:1057B00003C6770B131686003366D60083C6870BA5
:1057C0009396060133E6C60083C6970B939686012F
:1057D000B3E6C6002322D70E83C6E70B03C6F70B3A
:1057E000131686003366D60083C6070C939606010F
:1057F00033E6C60083C6170C93968601B3E6C6004F
:105800002324D70E83C6A70B03C6B70B1316860037
:105810003366D60083C6C70B9396060133E6C600EF
:1058200083C6D70B93968601B3E6C6002326D70E10
:1058300003C6270C83C6370C93968600B3E6C600D2
:10584000B3D656032328D70E03C6670C83C6770C3E
:1058500093968600B3E6C600232CD70E03C6470CEA
:1058600083C6570C93968600B3E6C600232AD70E4C
:1058700003C6870C83C6970C93968600B3E6C600D2
:1058800093968600232ED70E03C6C70C83C6D70C6B
:1058900093968600B3E6C600939686002320D71021
:1058A00003C6A70C83C6B70C93968600B3E6C60062
:1058B000939686002322D71003C6E70C83C6F70C05
:1058C00093968600B3E6C600939686002324D710ED
:1058D00003C6070D83C6170D93968600B3E6C60070
:1058E000939676002326D71003C6270D83C6370D5F
:1058F00093968600B3E6C600939676002328D710C9
:1059000003C7C73283C7D732937717006386070070
:1059100013050900EFE09FAD130919006FF09FC751
:1059200033889D0303270101232C010133850701DF
:105930000346C50C8346D50C93968600B3E6C60095
:1059400003C6A70B83C5B70B9396260193958500D5
:10595000B3E5C50003C6C70B13160601B365B60051
:1059600003C6D70B131686013366B60013565600CE
:10597000B3D6C60223A0DB000346A50C8346B50CB4
:1059800013850D0093968600B3E6C60003C6A70BE9
:1059900083C5B70B93958500B3E5C50003C6C70B58
:1059A00013160601B365B60003C6D70B93972601FD
:1059B000131686013366B60093565600B3D7D70246
:1059C0008325410193060C002320FB0093972D00B3
:1059D000B307F70003A60700EFE0CFF683A7018225
:1059E0000328810137870000338807018346E80CCC
:1059F0008347F80C93978700B3E7D7008346A80B3B
:105A00000346B80B93972701131686003366D6001A
:105A10008346C80B9396060133E6C6008346D80B2F
:105A200093968601B3E6C60093D65600B3D7D70245
:105A300023A0FA0063CCE7149307F7FF23A0FA0032
:105A40008327C10003A60A0013850D0083A54182A8
:105A500093074002B386FD022320CA00B387D50016
:105A600023A6C70093054006232CD100EFC00FA04A
:105A70008327C10033889D0303260B008326810101
:105A800083A7418223A0C90083A50182B387D700E1
:105A900023A8C70083A60B0013850D00B38505015D
:105AA0002320D90023AAD700232C010103C6250CEB
:105AB00083C7350C9305500693978700B3E7C7005B
:105AC0001306900133D6C702EFC04F9A83A6018216
:105AD00003288101B386060103C6A60883C7B6085A
:105AE0009306E00193978700B3E7C700639AD70056
:105AF000130600009305000613850D00EFC00F99F3
:105B0000B3879D0383A60182B386F60003C6A60869
:105B100083C7B6089306600193978700B3E7C70071
:105B20006392D702130610009305000613850D003B
:105B3000EFC0CF95130620009305000613850D00D6
:105B4000EFC0CF9493064002B386DD028327C100E5
:105B5000938D1D00938A4A0083A74182130A4A004D
:105B6000130B4B0093894900938B4B001309490099
:105B7000B387D7009306C00423A4D702930620025C
:105B800023A6D702130C4C026FF0DFA63787FFFF66
:105B9000E3D8E7EA23A0EA006FF09FEA338789039E
:105BA0008327C10003AA0A001385090083A7418245
:105BB00093050A00B387E70023AC470123A007023F
:105BC000EFC0CF9D93050A0013850900EFC00FAA0F
:105BD000B386690383A701823386D7008345A60D68
:105BE0000347B60D13060000131787003367B7008D
:105BF0002320E900630607009386A60E3386D700AC
:105C0000338769032326C9002322790123147901EC
:105C100023059901130800009389190013098908C5
:105C2000938A4A00B387E70083C6670B03C7770BE5
:105C300013178700B366D70003C7870B83C7970B7B
:105C4000232CB9F9131707013367D70093978701FE
:105C5000B3E7E700232EF9F893070000232A09FC95
:105C6000232C09FC232E09FC2324F9FA232609FB03
:105C70002328F9FA232A09FB232CF9FA232E09FBFE
:105C80006FF05FA3930A8108B786B8ED9305410AC8
:105C900013870A009307F0FF938606320326070056
:105CA000130A000213F817001375160093D7170094
:105CB0006304A800B3C7D700130AFAFF13561600EF
:105CC000E3120AFE13074700E31AB7FC0327410A51
:105CD00093C7F7FFE31CF7A203478108930710005F
:105CE000E316F7A2034791089307F000E3E0E7A269
:105CF000EFB08FF5370B010093070000130BFBFF8C
:105D0000B70BFF00930CC00303A78180938A3A006E
:105D10006362EA0EE38E079E83A7818223AC0700AD
:105D200023A0070223AE0700B727000093878780D0
:105D30007390073037190100EFC08FA4130549C5D0
:105D4000EFC00F9563180512130549C5EFC00F9EEC
:105D5000130549C51305C502EFC08F93B71701009E
:105D6000938707C8371901002326F102130949C593
:105D70006316050013850700EFC04F9B83A7818240
:105D80000327090223A8E7020327C90423A6E70281
:105D900037070300832687002322D10203278700C9
:105DA000232C0100232801002324E10203A747003C
:105DB0001367071023A2E700B7170100938707CBEB
:105DC000232AF1009387418D231401082328F1022F
:105DD0008327C10083A7418203A70700B7E755AA1D
:105DE0009387D7EA631EF70883A7818223A207005F
:105DF0006F00000083892A0083873A0003C71A00D6
:105E00009399890093970701B3F77701B3F9690173
:105E1000B3E9F900B3E9E90013050A0013860900A4
:105E200093057006EFB09FE433079A0383A781823E
:105E3000130A1A00B387E70023AA37119307090052
:105E40006FF09FEC13050900130600009305700620
:105E5000EFB0DFE13307390383A78182130919000B
:105E6000B387E70023AA071083A78180E36CF9FCBE
:105E70006FF09FEA130549C5EFC0CFA36FF05FED48
:105E8000B70603008327410203A786003307F740C4
:105E9000B7E7F5059387071063F8E70083A7860047
:105EA0002322F102EFC0CF8D83A7418203A74707CA
:105EB00013772700630C070403C7018513772700B6
:105EC0006316070403AB470783AA4707EFB0CFD297
:105ED00083A6818203A6418293558B0013D50A01C4
:105EE000938606271306460593F5F5001375F50FFF
:105EF000EFD01FDB03A78182832707296300051CDE
:105F000093E717002328F728EFB00FD403A74182A7
:105F10008327470793F71700638C070083C7018522
:105F200093F717006396070083A7818223A80728A9
:105F300083274707B70603002388F18403A7860059
:105F4000832781023307F740B79798009387076844
:105F500063F8E70283A78600130600009305300666
:105F6000130500002324F102EFB01FDC63040500D9
:105F7000232CA10083270101938717002328F10018
:105F8000032701019307702563FEE702371501001F
:105F9000130545C5EFC00F92832781016386070073
:105FA0000325C102EFC00F9183A781820327090255
:105FB000232C01002328010023A8E7020327C9049A
:105FC00023A6E702138B41819387418C232EF10096
:105FD000138CC180B7470F00938707242320F10457
:105FE000832C0102B7A7070093870712930B810840
:105FF000938A418C930900002322F10483A78180B6
:1060000063E2F90C832B0102138B01A2130A000037
:10601000930C805D83A78180636CFA30138B419071
:10602000938AC18E138A418E938BC180B70700017A
:106030009387F7FF93090000930D0000232EF100D2
:1060400003A7818083A7418263EAED3E83A54700D1
:1060500003A6018E6398C50083A5870003A6C18DA2
:10606000E388C5D603A6470023A0C18E03A78700F7
:1060700083A5470023AEE18C03A6C181B7060300C8
:1060800063F6C54C83A7470023AEF60283A741827F
:1060900083A7470083A6418203A6C1813707030077
:1060A00083A5860063FAC54A03A686006374F600DA
:1060B00083A786002320F7046FF09FD193E7270082
:1060C0006FF05FE413850900EFA05FF5032741013E
:1060D00093972900130A0500B307F70083A7070069
:1060E0006384A7209307805DB38DF90203A7018223
:1060F000138509003307B7018345A70B8346B70B08
:1061000093968600B3E6B6008345C70B93950501C9
:10611000B3E6D5008345D70B03A70A009395850105
:10612000B3E5D50093D58500B385E50293D5250168
:10613000EFD05FFB93860C001306050093050A0061
:1061400013850900EFE00F8003A70182B307B701B1
:1061500003C7670D83C6770D93968600B3E6E60006
:1061600003C7870D13170701B366D70003C7970D41
:10617000131787013367D7006300071683C6670DBF
:1061800003C7770D13178700B366D70003C7870DC2
:1061900083C7970D131707013367D70093978701BC
:1061A000B3E7E700B387470313D78700B7070100BA
:1061B0009387F7FFB387E74063D407009307000096
:1061C00083260C002320FB00939D860093DD8D0029
:1061D00063FCFD0093850D0013850900EFB01FC916
:1061E00093850D006F0080029385070013850900D9
:1061F0002326D1042324F104EFB05FC78326C10412
:10620000E3C006FE832781049385070013850900F8
:10621000EFB0DFB8639209040327410493571A00D3
:10622000B387E700B3D747031307F0076374F7009A
:106230009307F007370703002324F70437470000CC
:10624000B357F7023717000063E4E7009307F7FF3F
:10625000370703002326F7040327410193972900FA
:10626000B307F70023A047019307805DB387F902C6
:1062700003A701823307F7008346270C8347370CB7
:106280003727A10793978700B3E7D700338A4703DF
:106290009307F007131A2A006376EA0083270104A4
:1062A000B357FA0213065000930530061385090010
:1062B0002324F104EFB05FA7130600006306050076
:1062C0008327810413860700930560061385090060
:1062D000EFB0DF996F00C002B70701009387F7FFA7
:1062E0002320FB006FF01FF31306500093053006C8
:1062F00013850900EFB05FA383C70B00E396A7F6F1
:10630000138509001306500093053006EFB0DFA196
:106310002380AB0093891900938B1B00130B4B0058
:10632000130C4C00938A4A00938C4C026FF01FCDE3
:1063300033079A0383A7018213050A00931A2A00E0
:10634000B387E70083C9A70B03C7B70B13178700F1
:106350003367370183C9C70B9399090133E7E90014
:1063600083C9D70B8327C1019399890183A70700AC
:10637000B3E9E90093D98900B389F90293D92901D6
:1063800093850900EFD01FD693050500930D0500F6
:1063900013050A00EFD01FD2832701032320A10495
:1063A00013050A003387570183250700EFD09FD0DC
:1063B0008327010463FAA7009385490113050A00A6
:1063C000EFD05FD2930D050083270103B3875701F8
:1063D00003A707002320F1046304B70383274101C7
:1063E00093860B0013860D00338757018325070022
:1063F00013050A00EFD01FD58327010423A0B7019E
:106400008327CB00638E0700832741019385090012
:1064100013050B00B38A570103A60A00EFE0CFC4AF
:106420008327C101130A1A00130B8B0893874700B7
:10643000938B4B02232EF1006FF0DFBD1307400258
:106440003387ED02B387E70083A7C70003270B005C
:106450006304F702032741033307370103260700CC
:1064600063F4C700138607002320CB009305400682
:1064700013850D00EFB08FFF93074002B387FD0235
:1064800003A74182B307F70083A6070103A70A0009
:10649000630ED70003278103330737010327070063
:1064A00063F4E6001387060023A0EA0083A64701F1
:1064B00003270A00630ED7000327C1033307370100
:1064C000032707006374D700138706002320EA0020
:1064D00003AC870183A70B00638C87058327C10169
:1064E000B37CFC0093874181338737010327070082
:1064F00063FCEC0093850C0013850D00EFB01F9733
:1065000093850C006F0000029305070013850D00B2
:106510002320E104EFB09F95E3440CFE0327010420
:106520009305070013850D00EFB05F8723A08B0153
:10653000938D1D00938B4B00130A4A00938A4A00E7
:10654000130B4B00938949006FF09FAF23AEC60237
:1065500083A7C1816FF01FB483A68600E3ECD7B494
:086560002320C7046FF0DF8661
:106568001308000063CE051063DC06003306C04044
:10657800B337C000B306D0401348F8FFB386F640DF
:106588009387060013030600930E05009388050001
:10659800639C061C63F2C51037070100636AE62492
:1065A800B70700016360F64493568601930780019C
:1065B80017A7FFFF1307C7553307D700034707007F
