:020000021000EC
:10000000370101001301010BE7000100130000009C
:1000100000000000000000000000000000000000E0
:10002000232E11FE232C51FE232A61FE232871FE6C
:100030002326A1FE2324B1FE2322C1FE2320D1FECC
:10004000232EE1FC232CF1FC232A01FD232811FDA2
:100050002326C1FD2324D1FD2322E1FD2320F1FD30
:10006000130101FCEF00C05F8320C10383228103E1
:1000700003234103832301030325C1028325810256
:1000800003264102832601020327C1018327810140
:100090000328410183280101032EC100832E810022
:1000A000032F4100832F010013010104730020304E
:1000B000971100009381819B1701000013018118A3
:1000C000170500001305851A970500009385051A8A
:1000D0006308B50023200500130545006FF05FFF9E
:1000E000138541C11301C1FF938541C1630EB50062
:1000F00083260500130545002320A100E7800600A4
:10010000032501006FF05FFE130141003715000069
:1001100013050588731045303725000013058580C9
:1001200073100530EF0040436F0000000000000036
:0401300000000000CB
:1002400048656C6C6F20776F726C642066726F6D9E
:1002500020566563746F52697363560068656C6CF1
:080260006F20776F726C6400DF
:10026800130101FE232E8100130401022326A4FE9C
:100278008327C4FE23A007008327C4FE23A4070006
:10028800130000000324C10113010102678000006C
:10029800130101FE232E8100130401022326A4FE6C
:1002A800130000000324C10113010102678000004C
:1002B800130101FE232E8100130401022326A4FE4C
:1002C8008327C4FE23A207008327C4FE1307F0FF79
:1002D80023A0E700130000000324C1011301010259
:1002E80067800000130101FE232E81001304010220
:1002F8002326A4FE8327C4FE83A7470093D70701BC
:1003080093F7F70F138507000324C10113010102B6
:1003180067800000130101FE232E810013040102EF
:100328002326A4FE8327C4FE83A7470093D787010B
:10033800138507000324C10113010102678000002F
:10034800130101FE232E1100232C81001304010246
:100358002326A4FE2324B4FE130000000325C4FEB4
:10036800EFF05FF893070500E38A07FE8327C4FED2
:10037800032784FE23A0E700130000008320C101A7
:10038800032481011301010267800000130101FEAB
:10039800232E8100130401022326A4FE2324B4FE85
:1003A800832784FE03A7C7008327C4FE23A4E7008E
:1003B800832784FE83A707001387F7FF832784FE1C
:1003C80083A74700939787003367F700832784FE46
:1003D80083A78700939707013367F7008327C4FE35
:1003E80023A6E700130000000324C1011301010242
:1003F80067800000130101FE232E8100130401020F
:100408002326A4FE8327C4FE13972700B7070300FB
:10041800B307F70083A70700138507000324C1016A
:100428001301010267800000130101FE232E8100E1
:10043800130401022326A4FE2324B4FE8327C4FE4A
:1004480013972700B7070300B307F700032784FEB5
:1004580023A0E700130000000324C10113010102D7
:1004680067800000130101FE232E1100232C810058
:10047800130401022326A4FE6F0040028327C4FE52
:1004880083C707009385070037250200EFF05FEB6D
:100498008327C4FE938717002326F4FE8327C4FE10
:1004A80083C70700E39C07FC13000000130000004B
:1004B8008320C10103248101130101026780000028
:1004C800130101FE232E1100232C810013040102C5
:1004D8002326A4FE0325C4FEEFF0DFF89305A00051
:1004E80037250200EFF0DFE5130000008320C1018B
:1004F800032481011301010267800000130101FD3B
:10050800232611022324810213040103232EA4FCB1
:10051800232604FE6F00800113052000EFF09FEDF5
:100528008327C4FE938717002326F4FE8327C4FE7F
:100538000327C4FDE3E2E7FE1300000013000000F8
:100548008320C10203248102130101036780000094
:10055800130101FE232E1100232C81001304010234
:10056800B70704002326F4FEB70704009387470063
:100578002324F4FEB7070400938787002322F4FEA0
:10058800832784FE1307100023A0E700130500004B
:10059800EFF05FE693070500138707008327C4FE83
:1005A80023A0E700B707010013850724EFF05FF1E8
:1005B800832784FE1307200023A0E7009305C000CB
:1005C80013051000EFF05FE613053000EFF09FE22F
:1005D80093070500138707008327C4FE23A0E700BD
:1005E800B7871E00938707482320F4FE13052000D1
:1005F800EFF05FE09307050013870700832744FEA9
:1006080023A0E7009305100013057000EFF0DFE169
:10061800832784FE83A7070013871700832784FE98
:1006280023A0E700832704FE13850700EFF01FEDE2
:100638009305300013057000EFF01FDF832704FED9
:1006480013850700EFF09FEBB70701001385C72557
:10065800EFF01FE76FF09FF9130101FF23268100D8
:1006680013040101130000000324C1001301010158
:040678006780000097
:0400000310000000E9
:00000001FF
