:020000021000EC
:10000000370101001301010BE7000100130000009C
:1000100000000000000000000000000000000000E0
:10002000232E11FE232C51FE232A61FE232871FE6C
:100030002326A1FE2324B1FE2322C1FE2320D1FECC
:10004000232EE1FC232CF1FC232A01FD232811FDA2
:100050002326C1FD2324D1FD2322E1FD2320F1FD30
:10006000130101FCEF2080628320C10383228103FE
:1000700003234103832301030325C1028325810256
:1000800003264102832601020327C1018327810140
:100090000328410183280101032EC100832E810022
:1000A000032F4100832F010013010104730020304E
:1000B00097210000938101871711000013018188A7
:1000C00013850185938501B36308B50023200500DE
:1000D000130545006FF05FFF17A500001305C5F27B
:1000E0001301C1FF97A50000938505F2630EB500CB
:1000F00083260500130545002320A100E7800600A4
:10010000032501006FF01FFE1301410037150000A9
:100110001305058873104530EF5050066F0000003E
:1001200000000000000000000000000000000000CF
:0401300000000000CB
:10094000982F8A4291443771CFFBC0B5A5DBB5E93A
:100950005BC25639F111F159A4823F92D55E1CABAE
:1009600098AA07D8015B8312BE853124C37D0C553C
:10097000745DBE72FEB1DE80A706DC9B74F19BC184
:10098000C1699BE48647BEEFC69DC10FCCA10C2474
:100990006F2CE92DAA84744ADCA9B05CDA88F97658
:1009A00052513E986DC631A8C82703B0C77F59BFC2
:1009B000F30BE0C64791A7D55163CA0667292914EE
:1009C000850AB72738211B2EFC6D2C4D130D38538B
:1009D00054730A65BB0A6A762EC9C281852C72924D
:1009E000A1E8BFA24B661AA8708B4BC2A3516CC77B
:1009F00019E892D1240699D685350EF470A06A10B4
:100A000016C1A419086C371E4C774827B5BCB03402
:100A1000B30C1C394AAAD84E4FCA9C5BF36F2E68A0
:100A2000EE828F746F63A5781478C8840802C78C2F
:100A3000FAFFBE90EB6C50A4F7A3F9BEF27871C632
:100A40009739696A85D5489FADF1F835108B05CC8B
:100A5000B6A5BE15365E414380A5585A5EF93D8461
:100A6000A00F0000E8030000C80000000056033E8D
:100A70000833102D202830265022C820EB7E00ECB1
:100A80000D7E00F1AB7C00F6907A00FB85770000CC
:100A900056730005E26D000A2367000F3E5F0014E5
:100AA0007B560019414D001EFF430023193B0028CF
:100AB000DB32002D732B0032F32400375A1F003C29
:100AC000961A0041921600463413004B63100050F2
:100AD000090E0055110C005A6C0A005F0A090064E7
:100AE00000010202030303030404040404040404D5
:100AF00005050505050505050505050505050505A6
:100B00000606060606060606060606060606060685
:100B10000606060606060606060606060606060675
:100B20000707070707070707070707070707070755
:100B30000707070707070707070707070707070745
:100B40000707070707070707070707070707070735
:100B50000707070707070707070707070707070725
:100B60000808080808080808080808080808080805
:100B700008080808080808080808080808080808F5
:100B800008080808080808080808080808080808E5
:100B900008080808080808080808080808080808D5
:100BA00008080808080808080808080808080808C5
:100BB00008080808080808080808080808080808B5
:100BC00008080808080808080808080808080808A5
:100BD0000808080808080808080808080808080895
:100BE0001C7D0000007B0000907C0000A07C0000C9
:100BF000907C0000587B0000907C0000A07C0000EE
:100C0000007B0000007B0000587B0000A07C0000FF
:100C1000087D0000087D0000087D0000587B000072
:100C200020850000A4830000A4830000A0830000AE
:100C3000B0830000B083000044830000A083000064
:100C4000B083000044830000B0830000A083000054
:100C5000008500000085000000850000448300003E
:100C60008000000000000000000000000000000004
:100C70000000000000000000000000000000000074
:100C80000000000000000000000000000000000064
:100C90000000000000000000000000000000000054
:100CA0000000000000000000000000000000000044
:100CB0000000000000000000000000000000000034
:100CC00000000000000000000F0000000000000015
:100CD0000000000000000000000000000000000014
:100CE0000000000000000000000000000000000004
:100CF000000000000E00000000000000E40F0100F2
:100D00004C100100B41001000000000000000000C1
:100D100000000000000000000000000000000000D3
:100D200000000000000000000000000000000000C3
:100D300000000000000000000000000000000000B3
:100D400000000000000000000000000000000000A3
:100D50000000000000000000000000000000000093
:100D60000000000000000000000000000000000083
:100D70000000000000000000000000000000000073
:100D80000000000000000000000000000000000063
:100D90000000000000000000000000000000000053
:100DA00001000000000000000E33CDAB34126DE6F0
:100DB000ECDE05000B000000000000000000000059
:100DC0000000000000000000000000000000000023
:100DD0000000000000000000000000000000000013
:100DE0000000000000000000000000000000000003
:100DF00000000000000000000000000000000000F3
:10112000803801008038010001000000FFFF00004E
:10113000FFFF0000FFFF0000FFFF0000FF7F000037
:10114000000804000004040000000400FFFF000089
:10115000FFFF0000FFFF000000080400FFFFFFFF8B
:0C116000F80C0100000000001900000065
:101450001000000000000000017A5200017C010130
:101460001B0D02001000000018000000245A0000AC
:10147000EC04000000000000100000002C00000040
:0C148000FC5E0000A00400000000000062
:04148C00F80C010057
:10149000931725003385A70013155500B7070300E0
:1014A000130545213385A7008327050013F7F70FA0
:1014B00093D6874093D7C74013F5F60093F7F7000C
:1014C000930617003306F500B386A602130727001C
:1014D0003745010013050588B307F7023305A60257
:1014E000B387F6003345F50267800000B757020066
:1014F0001307300023A4E70237E70400130707208F
:1015000023A6E7021307800223A8E70213070019A6
:1015100023A8E70423AAE7041307003223ACE70457
:1015200067800000938E35003783FFFF93FEFE0F28
:1015300013068000930700001307100013035300E5
:1015400013D8F70093971700B3F6EE0093970701AF
:1015500093D70701B336D000131717001306F6FF11
:10156000B3C86700638606019397080193D7070104
:101570001377F70FE31606FC638005063783FFFF3A
:10158000130F0500B30FB50013035300034E0F00F4
:10159000130680001307100013D8F7009397170065
:1015A000B376EE009397070193D70701B336D000C7
:1015B000131717001306F6FFB3C86700638606010A
:1015C0009397080193D707011377F70FE31606FCEB
:1015D000130F1F00E39CEFFB930600013757020037
:1015E0002320D704B756020003A706041377170079
:1015F000E30C07FE37170000130787BC23A0E600A3
:101600001307103023A2E600B756020003A74600D6
:101610001386460013770710E31A07FE03A7C600D8
:101620001377F70F631A071037170000130737B047
:1016300023A0E600130710302320E600B75602006F
:1016400003A7460013770710E31C07FE37170000B7
:10165000130707B0B3EEEE0023A0D6011307103036
:1016600023A2E600375602000327460093064600F1
:1016700013770710E31A07FE638E05023716000082
:10168000B305B500130606B0B758020013081030B2
:10169000034705003367C70023A0E80023A0060125
:1016A00003A7060013770710E31C07FE13051500B8
:1016B000E390A5FEB7160000938606B013F7F70F68
:1016C0003367D700375602002320E6001307103097
:1016D0002322E600B756020003A74600137707103F
:1016E000E31C07FE37170000130707B093D78700E6
:1016F000B3E7E7009397070193D7070123A0F6000C
:101700009307103023A2F6003757020083274700C3
:1017100093F70710E39C07FE930700022320F704CA
:10172000375702008327070493F71700E39C07FE4F
:1017300013051000678000009307000223A0F60441
:10174000375702008327070493F71700E39C07FE2F
:101750001305000067800000B7570200130700015F
:1017600023A0E70483A8070493F81800E38C08FE7D
:1017700037170000130797BC23A0E70013071030AA
:1017800023A2E7003757020083274700930647004C
:1017900093F70710E39A07FE8327C70093F7F70F25
:1017A00063920720B71700009387F7BF2320F70045
:1017B0009307003023A0F600B757020083A6470026
:1017C0001387470093F60610E39A06FE03A38700EB
:1017D000130640001373F30F630AC31693880500C2
:1017E000638E0502B7150000375702009385F5BFD9
:1017F000130800302320B700232207018327470066
:1018000093F70710E39C07FE03268700B307D50074
:10181000938616002380C700E3EE16FDB71700007D
:10182000375702009387F7BF2320F7009307003054
:101830002322F7008327470093F70710E39C07FE56
:10184000832E8700B71700009387F7BF2320F70088
:10185000930700302322F70093FEFE0F3757020054
:101860008327470093F70710E39C07FE93070002C6
:10187000032F8700B75602002320F70483A706042E
:1018800093F71700E39C07FE378EFFFF13068000D7
:1018900013071000130E5E0093D5F70093971700FF
:1018A000B376E3009397070193D70701B336D000CF
:1018B000131717001306F6FF33C8C7016386B60077
:1018C0009317080193D707011377F70FE31606FC68
:1018D000638E08043783FFFFB30815011303530019
:1018E000034E0500130680001307100093D5F70080
:1018F00093971700B376EE009397070193D70701EC
:10190000B336D000131717001306F6FF33C867006D
:101910006386B6009317080193D707011377F70F73
:10192000E31606FC13051500E39CA8FA13F7F70F5E
:10193000631AD701137FFF0F93D787001305100099
:101940006304FF0013050000678000001306100009
:10195000E38AC5E8B71600009386F6BF23A0D70038
:10196000930700302320F7003757020083274700F2
:1019700093F70710E39C07FE832687009307000276
:101980002320F70493F6F60F375702008327070446
:1019900093F71700E39C07FE2300D5001305000012
:1019A00067800000930700022320F70437570200E6
:1019B0008327070493F71700E39C07FE1305000035
:1019C0006FF09FF813070001B757020023A0E70448
:1019D000375702008327070493F71700E38C07FEAD
:1019E000B7170000938707B02320F7009307103044
:1019F0002322F700375702008327470093F7071089
:101A0000E39C07FE930700022320F70437570200E8
:101A10008327070493F71700E39C07FEB70703002B
:101A200003A6870037870100B70603001307F7698D
:101A300083A78600B387C740E37CF7FE678000007A
:101A400013070001B757020023A0E704375702002D
:101A50008327070493F71700E38C07FEB7170000EE
:101A6000938787BC2320F700930710302322F700C9
:101A7000375702008327470093F70710E39C07FEC0
:101A80008327C70093F7F70F63940702B717000087
:101A9000938717B02320F700930700302322F70025
:101AA000375702008327470093F70710E39C07FE90
:101AB00013070002B757020023A0E70437570200BC
:101AC0008327070493F71700E39C07FE6780000055
:101AD000130101FE232E1100034806008346160061
:101AE00003472600834736002315B10013763500DF
:101AF0009308200113058100930580002304110140
:101B0000A304C10023060101A306D1002307E100BD
:101B1000A307F100EFF01FA18320C101130101020F
:101B20006780000013753500130101FC9307200145
:101B3000136505F82306F100232E11022328010066
:101B4000232A0100232C0100232E0100232001025F
:101B5000232201022324010223260102A306A1005D
:101B60002317B10093070101930601030347060001
:101B70009387170013061600A38FE7FEE398D7FE9E
:101B80001305C10093054002EFF0DF998320C103E4
:101B90001301010467800000130101FE232E1100D0
:101BA000B337A0006386050093E707F893F7F70FB4
:101BB0001305C10013077001930540002306E100DF
:101BC000A306F10023170100EFF0DF958320C10188
:101BD0001301010267800000930510006FF0DFB76A
:101BE00013070001B757020023A0E704375702008C
:101BF0008327070493F71700E38C07FEB71700004D
:101C0000938737B22320F700930710302322F70081
:101C1000375702008327470093F70710E39C07FE1E
:101C2000B71700009387F7BF2320F7009307003012
:101C30002322F700375702008327470093F7071046
:101C4000E39C07FE832787002300F500B7170000F9
:101C50009387F7BF2320F700930700302322F70074
:101C6000375702008327470093F70710E39C07FECE
:101C700083278700A300F500B71700009387F7BFFD
:101C80002320F700930700302322F7003757020084
:101C90008327470093F70710E39C07FE83278700FD
:101CA0002301F500B71700009387F7BF2320F70043
:101CB000930710302322F70037570200832747008D
:101CC00093F70710E39C07FE83278700B7560200AF
:101CD000A301F500930700022320F70483A706045D
:101CE00093F71700E39C07FE1305100067800000C0
:101CF000130101EB13038500130E01002326811449
:101D0000232491142322211523203115232E41133E
:101D1000232C5113232A61132328711323268113A3
:101D2000232491139308010293070E001307030065
:101D300083260700938747001307470023AED7FE8B
:101D4000E398F8FE938E0800130F0106138708002E
:101D500083C7050003C6150003C8350083C62500E8
:101D60009397870113160601B3E7C700B3E707018E
:101D700093968600B3E7D7002320F70013074700A8
:101D800093854500E316EFFC9382080C1387080047
:101D900083258703032647000328470213DF150125
:101DA00093D63501832307009397F500939FD500C1
:101DB000B3E7E701B3EFDF00931496019356760083
:101DC000131FE6001354260193D5A500B3C7F701EE
:101DD000B3E69600336F8F00B3C7B700B3C6E60112
:101DE000B305780013563600B387B700B3C6C600F4
:101DF000B387D7002320F70413074700E39AE2F8DC
:101E000037140100B7368A42832AC101832F81012A
:101E100083234101032801018324C100832281001F
:101E2000032F4100832501001304449413890810F3
:101E3000138A86F96F00C002032A0400938A0F00F8
:101E400093840200938F030093020F009303080012
:101E5000138F05001304440093850700130807003F
:101E6000935668009357B800131BA80193195801A3
:101E700033EB6601B3E93701135C9801931B7800DB
:101E800033463B01B3EB8B0113DB2500139CE501CB
:101E9000B3E7E501B3C87F0033467601B3F8080124
:101EA000B36B8B0133FB570083A70E00939635016C
:101EB000B3C8F80193D9D5001397A50093DC650149
:101EC00033061601B3E9D9003306F600B3C63B0169
:101ED00033FCE5013367970133C7E600330656014B
:101EE000B3678B01B3064601B307F700938E4E002C
:101EF0003387D400B387D700E310D9F5232EF1013F
:101F00002328E100232C7100232A01012320F10062
:101F10002322B1002324E101232651001305850269
:101F20006F00800083270E00032703001303430084
:101F3000130E4E00B307F700232EF3FEE31465FEE5
:101F40000324C11483248114032941148329011417
:101F5000032AC113832A8113032B4113832B0113FB
:101F6000032CC112832C811213010115678000001C
:101F7000130101FE232C8100232821012326310196
:101F8000232E1100232A91002324410123225101F1
:101F9000032A05001309050093090600B307CA00C8
:101FA0002320F50013840500137AFA0363F8C700B1
:101FB00083274500938717002322F50063040A0650
:101FC000930A0004B38A4A419304040063F6590358
:101FD000639609088320C101032481018324410100
:101FE000032901018329C100032A8100832A4100BA
:101FF0001301010267800000930489029305040025
:1020000013860A0033854401EF7050619385040004
:1020100013050900938909FCEFF09FCDB3093A013C
:10202000330454019307F00363F43707938409FCE6
:1020300093F404FC93840404B30494009305040013
:102040001305090013040404EFF09FCAE31894FE7B
:1020500093F9F903130A0000E38E09F613058902C8
:10206000032481018320C10103290101832A410046
:1020700013860900938504008329C100832441014C
:1020800033054501032A8100130101026F701059C5
:1020900093040400130A00006FF09FF3B7E7096A86
:1020A000938777662324F500B7B767BB938757E814
:1020B0002326F500B7F76E3C938727372328F500D2
:1020C000B7F74FA59387A753232AF500B7570E51AB
:1020D0009387F727232CF500B777059B9387C7884D
:1020E000232EF500B7E7831F9387B79A2320F502C5
:1020F000B7D7E05B938797D1232005002322050003
:102100002322F50267800000630406006FF05FE69B
:1021100067800000130101FE232C8100232A910017
:10212000232E110003260500832745001304050014
:102130001357D60193973700B3E7E700131736001C
:10214000939807011318070193D808011358080141
:102150001395870093D888009316B600135888000B
:1021600013DE87013365150193D707019358870163
:10217000B3E6060113570701130370032304C101DB
:10218000A304F1002315A10023061101A306E10019
:102190002317D1001376F603938405006360C316FA
:1021A000930780033386C740B71501001305040069
:1021B000938505C6EFF0DFDB93058100130504006E
:1021C00013068000EFF0DFDA8347B4002380F400C9
:1021D0008357A400A380F4008327840093D787004B
:1021E0002381F40083278400A381F4008347F40053
:1021F0002382F4008357E400A382F4008327C40001
:1022000093D787002383F4008327C400A383F400BB
:10221000834734012384F40083572401A384F4000A
:102220008327040193D787002385F40083270401C3
:10223000A385F400834774012386F4008357640167
:10224000A386F4008327440193D787002387F400F3
:1022500083274401A387F4008347B4012388F40053
:102260008357A401A388F4008327840193D78700B0
:102270002389F40083278401A389F4008347F401B0
:10228000238AF4008357E401A38AF4008327C4015E
:1022900093D78700238BF4008327C401A38BF4001A
:1022A00083473402238CF40083572402A38CF40068
:1022B0008327040293D78700238DF4008327040229
:1022C000A38DF40083477402238EF40083576402C5
:1022D000A38EF4008327440293D78700238FF40052
:1022E00083274402A38FF4008320C10103248101CA
:1022F00083244101130101026780000093078007D6
:102300003386C7406FF05FEA9307401FB387F5023B
:10231000130101FE232E1100232C8100232A91009A
:1023200023282101232631012324410123225101A5
:102330001307F01F9387071093D797009387070819
:1023400093D787006374F7009307F01F338AF7026F
:10235000131725003307A700131757001307471F4C
:10236000B7040300B386E4001307470023A0F60078
:10237000B384E40013040000930AF01FB70900803F
:1023800013090010B3078402130700009397270076
:10239000B307FA401385070063CE0700EF504050A3
:1023A000EF504065EF5080471307050063F4AA0023
:1023B0001307F01F131504013365E500336535017C
:1023C00023A0A40013041400E31E24FB8320C101F6
:1023D0000324810183244101032901018329C100D0
:1023E000032A8100832A4100130101026780000053
:1023F000130101FF2324810023261100130405008B
:10240000EFF04FDC0325840293050400EF10D06F3A
:10241000630A050483260400930710009305F0FF68
:102420001305900013F67700131726003307E40016
:102430000327070093871700630CB70263F2E604D3
:1024400093060700E390A7FE2320E402EFF04FDF9E
:10245000130510008320C100032481001301010132
:102460006780000023200402232204026FF01FFE75
:1024700023220402EFF0CFDC130500006FF09FFD74
:102480002322C402138706006FF01FFC130101FF13
:102490002326110023248100232005002322050088
:1024A000232405002326050023280500232A0500F0
:1024B000232C0500232E05002320050223220502DC
:1024C00013040500EFF00FD00325840293050402E6
:1024D000EF10D06A032481008320C10013010101A1
:1024E0006FF00FD6130101F92322910693073000F4
:1024F00023261106232481062320210723AAF190F5
:10250000EFF04FCC3715010093050100130505A42A
:10251000EF10100D631A050003A78182832787013E
:1025200093871700232CF700930501001305000083
:10253000EF101072631A050003A781828327C70179
:1025400093871700232EF7009307010293060104D7
:10255000370403000327040193871700A38FE7FEC6
:10256000E39AF6FE83278405130701021306000091
:102570002320F1048327C405930510001305600090
:102580002322F104832704062324F104832744062D
:102590002326F104832784062328F1048327C40615
:1025A000232AF10483270407232CF10483274407FB
:1025B000232EF104EF10D01813090500EFF04FC8D7
:1025C0008327C4026306090293E717002326F40257
:1025D0008320C106032481069307100023AAF190EB
:1025E00003290106832441061301010767800000C7
:1025F00093F7E7FF2326F40203A7818293072000C5
:1026000023AAF19083270702938717002320F7025C
:102610008320C10603248106832441060329010681
:102620001301010767800000130101FF23248100CB
:102630002326110003270502832745021304050002
:1026400013071700939727002320E502B307F5002F
:1026500023A0E700EFF00FB783254402032584028F
:1026600013060402EF105058630A05008327440242
:102670009387170093F777002322F4020324810045
:102680008320C100130101016FF08FBB130101F31F
:10269000232EB1092326110C2324810C2322910C13
:1026A0002320210D232E310B232C410B232A510BE8
:1026B0002328610B2326710B2324810B2322910BEA
:1026C0002320A10B370703008326870083A781916E
:1026D0009387170023ACF19083A5819183A7818212
:1026E00003A6018C23A0D18C23A4B7003386C64057
:1026F00023A8C70023A6D700832607038327070341
:102700000327070393F6060193F7070213770704DD
:10271000B335F000130600196316070037560000A2
:10272000130606E203C5C18BE3860744E31A054698
:102730001306001923ACC18A639406006F100023AE
:10274000B706030083A7460293F7F7FD23A2F6021C
:10275000238EB18AB707030023AC07029387C19485
:10276000B71E0000B7D201001388418B1385C194B6
:102770009388070113060000130E1000B70503002D
:10278000938E0EFA9382024C930F703E130F40000B
:102790003313CE00130730009306000083A74505CE
:1027A0001307F7FFB3F76700B337F000B386F600FF
:1027B000E31607FE83A78191032705003333D0007A
:1027C000B387E740E384065403470800E310075447
:1027D000B3D7F20203A7080003A4819193566700C0
:1027E00023208500B387D740B387E70023A0F800F4
:1027F00093D7670083A68182131726002300680001
:102800003387E6002326F7360327C736930766008B
:10281000B317FE00E3E2EF4E83A6018203C3460D29
:1028200003C7560D13178700336767003357C74038
:1028300013771700E302074C03A7850213770708F5
:10284000E30C074A03A74502B3E7E70023A2F5021A
:102850001306160013081800130545009388480056
:10286000E318E6F3B717010083A78712E38C07701C
:102870001387C1949387C194138D8703B7272600CC
:1028800013030702B7040300138A075AB76700004F
:102890001304000093844418930A3000138B073804
:1028A000930903009307805D3307F40283A7018235
:1028B00093061000B387E70003C7E70AE386E666DE
:1028C00003C7E70AE386EA6E83A581821317240013
:1028D00093074005B307F402B387F50003A6070486
:1028E00083A64704E3D4C65A03A6070483A6870435
:1028F000E3D8C65883A6070423A8D7041308805D2D
:1029000033080403330587001315250013860900D7
:10291000930600003305850093081000B307D50027
:1029200003A701829387C700939727003307070106
:10293000B387F50003A30701034E270D8347370D27
:102940001387160093978700B3E7C7019397770023
:10295000E3D6673C83270600B396E8009387170009
:102960002320F60063FAFA0083A70400B3E6F6001A
:1029700023A0D40083A58182930607001306460096
:10298000E31E57F993074005B307F402B385F5003A
:1029900083A70505E38667431307805DB307E40259
:1029A00003A7018283A605053307F7000346070D39
:1029B0008347170D93978700B3E7C7009397770076
:1029C000E3D0D74083A7040093E7070123A0F400D6
:1029D000B717010083A78712130414009384040A15
:1029E0009389C900130DCD00E36EF4EA37070300A5
:1029F0000327070313778700E314071CE380070C02
:102A00009387418C2328F100938781852320F1024D
:102A1000938701862326F1009387C1949387070546
:102A2000232AF1009387418E2320F1049387C18EDE
:102A30002322F1049387C18C2324F1049387C18A54
:102A400037170000938901A2938E418A930C0000EE
:102A5000930400002326F104930707FA37090300C3
:102A60002324F102138D0C00138C0E0093880900AF
:102A7000138804008327010483A68182139F3C00EE
:102A80003387A701B70703009387871883250700BB
:102A90003307F80083274104B386E60103270700C4
:102AA0003386A70123A0B62603260600832701014B
:102AB000130E491823A2C62683A60700B304C80133
:102AC00013D536403307A7403307D70023A0E700CC
:102AD00083A6040013573740E352E61293E616002C
:102AE00023A0D400E354B71003A704001367070220
:102AF00023A0E4000327090393060921B307D800A4
:102B000013778700232CF100B337E0002322F10272
:102B10006306070013071000E380EC328327C1042B
:102B200003278101B306FD00832781048325070065
:102B300003A70600B307FD0003A6070023A0B60005
:102B40002326F1023387E5402326C1069306F01FB2
:102B5000E3D6E61883260C00130707C09386F6FF1A
:102B60002320DC00630C070003A7818283268700F3
:102B70001387C1893307ED002320D70083A68189FD
:102B8000E390061403270C0093860189B306DD0049
:102B900003A606001317A7003307B7001385C189E2
:102BA0003305AD003306C74083220500E314061E3B
:102BB00013858188138701883307ED003305A5014C
:102BC0002320C7002320550023200C0023A0B6009B
:102BD00063960C001307700223ACE188938681870B
:102BE000B306DD0003A5060083A5018213070501D6
:102BF000135757403307E6403307A70023A0E600EA
:102C000003C5850883C69508130707011356F741C6
:102C100093968600135757403347E600B3E6A60065
:102C20003307C7409396A600E3FEE6069386018726
:102C3000B306DD0003A6060083278102E3F6C7146E
:102C400083A6040093E6060423A0D40083A6418251
:102C500033069F0113162600B386C60083A506021D
:102C6000E3880502138681863306CD00832606009D
:102C700013D58600637EE50013056010B385A502B9
:102C800093D5C500B386B6002320D60013D58600A1
:102C90006376A700931687002320D600930AC918ED
:102CA000B30A580103A70A0093D6A6002320D10631
:102CB000930600102324D10813770701630C070043
:102CC00037370000130707202320E10613070020F1
:102CD0002324E1081306C91F93060920130749207E
:102CE0003307E8003306C800B306D800032B0600FC
:102CF00083AF06008327070003A70A0093890F000C
:102D0000232EF10213778700630E070093068920B4
:102D10001307C920B306D8003307E80003AB060049
:102D20008329070013D5194013571B403307E702C7
:102D3000232C0103232A11032328E103232E01005E
:102D40003305A5023305E500EF409035EF40904A8A
:102D50001307805D3387EC0283A20182032F0103F6
:102D600083284103032881033387E2008343670BF1
:102D7000034A770B0346870B8346970B131A8A0087
:102D800003A70A00336A7A00131606013366460168
:102D9000139A8601336ACA009306500B13777700A3
:102DA000330ADA02630C070803A70A001377070146
:102DB0006302077A1357FB4113D6F941B346670103
:102DC000B34F3601B386E640B38FCF4063D4DF0004
:102DD000938F06008327C10313D7F741B349F70048
:102DE000B389E94063F4F90193890F001307805D0B
:102DF0003387EC029307500BB382E20083C5620B6A
:102E000003C6720B83C6820B03C7920B1316860090
:102E10003366B60093960601B3E6C6001317870122
:102E20003367D70013578700B387F9023307370397
:102E300093D77700232EF1001357770093024005B4
:102E4000B3825C0203A681829387C194938387092E
:102E50002322E10637170100B383A30113070712EA
:102E600093992C0083A60300B3093701330756005A
:102E7000832F070513D6B64003A70900B38FCF40B1
:102E8000B38FDF00832541018326410293D03F4069
:102E90001306010623A0F30113850C00B70F5A0097
:102EA000232E0103232C1103232AE103232851029B
:102EB00023241106232CF10723200108EF1050339F
:102EC0000327C1068326810603A681828327C102C8
:102ED0008322010393D6864023A0E700B302560065
:102EE00023AAD2041357874023ACE2040327010727
:102EF000032F41038328810323AEE2040327410605
:102F00000328C10323AEE2020327410723A0E20600
:102F10000327010623AAE20203A7090023ACE20269
:102F20000327C1071357874023A4E206032781071D
:102F30001357874023A2E20603274108832681080E
:102F40003307D7021357874023A6E2068349D108E7
:102F50000347E108B33930016304070093E929000E
:102F60000347C1086304070093E949008327C101AF
:102F700003A74182B3069F019396260023A4F8027B
:102F80003307D700032747021385080023260103D0
:102F900023ACE8042322E103232E1101EF20C02EED
:102FA000130640053386CC021307C00283A6818234
:102FB0008328C10183A501823387EC023386C600D2
:102FC0002328A60603A6C8063387E6002324C720C5
:102FD00003A688069306805DB386DC022326C720FD
:102FE00003A608072328C72003A64807232AC720CB
:102FF000B386D50083C2E60D83CFF60D83C5060EDA
:1030000003C6160E939F8F00B3EF5F0093950501E3
:10301000B3E5F501131686013366B600232CC720ED
:1030200083C2260E83CF360E83C5460E03C6560EC8
:10303000939F8F00B3EF5F0093950501B3E5F50112
:10304000131686013366B600232EC72083CF660E83
:1030500083C5760E03C6860E83C6960E93958500AD
:10306000B3E5F501131606013366B60093968601A3
:10307000B3E6C6002320D72283A6C8042322D72282
:1030800083A608052324D72283A648052326D72212
:1030900083A64800032F41020328C1022328D72218
:1030A0000347E1086304070203A70400136727002E
:1030B00023A0E40003A704001367470023A0E40053
:1030C00003A704001367870023A0E4000327410738
:1030D000135ADA0083A641821317A700335A470315
:1030E00083A488046362AA32130710006386E46035
:1030F0006386045E130720006384E45C13073000DA
:103100006382E45A33079F01131727003387E600D1
:103110000327C7016366A73093E90901130A050075
:1031200013050A0003A60A0093940401B3E43401D2
:1031300013760601630A06301304500B330485022C
:10314000B7860000135484006370D43E330A804075
:103150009309040093030A00130B0A00930604006A
:1031600013060400930A0400130504001307400526
:103170003387EC0283A781829302891DB302580032
:10318000930FC91DB30FF801130E091E330EC801AA
:103190009305491EB305B8003387E700232297083B
:1031A000232A3707232C3707232EC7062320D708C7
:1031B00023A0420123A08F0023206E011307891E44
:1031C00023A0A500B306E8001307C91E23A07600BC
:1031D0003307E80023205701832781019306F01F5E
:1031E00003A707008327C10003A6070023A0E70069
:1031F0003307C74063D4E61E130707C08327810245
:1032000083A64182330F9F013307F7028327010210
:10321000131F2F00338FE60103A607009387470093
:1032200037130100135E5640370510009305091A45
:10323000135767403307C7413307C70023AEE7FE84
:1032400083268F02032FCF023307E040B306D70255
:103250002320F1028327C100032E831203230101DF
:10326000938747002326F10083274101B305B80067
:103270001306491A3307E703B386A60093D65641CF
:103280003306C8001303430023A0D50093874702E9
:10329000938C1C0023286100232AF1003307A70028
:1032A000135757412320E60093888808130C4C00DD
:1032B000130D4D001308080A63EECCFB83A7419160
:1032C000130720009387F7FF6366F74483A6819175
:1032D00037170100130707A493972700B307F700D8
:1032E00003A7418503A50702B387E64003C72185ED
:1032F000637AF50083A78191134717002389E1843E
:1033000023AAF184630A0740B707030013073000BC
:1033100023AEE700B707030003A7870003A6018CCD
:1033200083A681823307C74023AAE60003A787014B
:103330001367270023ACE7008320C10C0324810C12
:103340008324410C0329010C8329C10B032A810B1F
:10335000832A410B032B010B832BC10A032C810A07
:10336000832C410A032D010A832DC1091301010D8C
:1033700067800000630C050023ACC18A638206BC31
:103380001306F6FF23ACC18A6FF08FBC03A5818BB7
:10339000638E065E630C0500130605006FF05FFE8A
:1033A00003A6818B639A065CE3180622B706030026
:1033B00083A7460293E7070223A2F6026FF04FB9F4
:1033C00003A781820326470A8326070563D8C6E23E
:1033D0008326470A2328D7046FF04FE2930600E0C4
:1033E000E35ED7E0130707406FF05FE103A7040037
:1033F0001377F7FD23A0E4006FF0CFEF93F6E6FF1D
:1034000023A0D4006FF00FEE33079F01131727009E
:103410003387E6000327C70193E90901E37247D127
:1034200033079F0113172700B386E60003A5C601E3
:1034300003A60A0093E90920939404011376060178
:10344000B3E43401E31A06CE378700001304050005
:103450006364E5001304F7FF9356FB4133C766012D
:103460003307D74093090400330A8040636287160C
:10347000B78600009386F6FFB783FFFF130B0000AB
:103480001305000093831300938A06006FF01FCE8C
:1034900093168700138781863307ED002320D7001A
:1034A0006FF0CFFF93860187B306DD0023A00600EF
:1034B00083A6040093F6F6FB23A0D4006FF00FF967
:1034C000138701883307ED000326070063980CF08B
:1034D0009386F6FF23ACD1886FF04FF0930600E09F
:1034E0006352D7E883260C00130707409386160023
:1034F0002320DC006FF00FE703A7450293C7F7FF17
:10350000B3F7E70023A2F5026FF08FB463E4FE0A7D
:1035100083A7080093D767006FF0CFAD2320060084
:10352000138716006FF04FC5B783FFFF9386F6FF32
:1035300093831300138B0300138A03001386060082
:1035400093890600938A06001385060013840600FB
:103550006FF0DFC1232C0103232A11032328E10389
:10356000EF40C02B9317150013570A013307F702DA
:10357000232EF1000328810383284103032F010335
:10358000135777006FF09F8B1306160023A0C60019
:103590006FF0CFEB83278102138581883307F60212
:1035A0003306A50183230600B383724033467702B6
:1035B0006FF04FE023A00800930700006FF08FA387
:1035C00083A7040093F7F7FE23A0F4006FF04FC029
:1035D00013552400135B2B403305A502232601035A
:1035E00023221103232EE101330B6B0333056541C5
:1035F000EF40002BEF400040EF4040221315250024
:1036000037870000032FC101832841020328C1022C
:103610006364E5001305F7FFB78600009386F6FFA5
:10362000B783FFFF13060500330BA04093831300FD
:10363000938A06006FF09FB303A7818223240708B3
:1036400023260708232807082324070A2326070A16
:103650002328070A232A070A232C070A232E070AEE
:103660002320070C2322070C2324070C2326070CF6
:103670002328070C232A070C232C070C6FF0DFB537
:1036800083A6870423A8D7046FF04FA703A6470497
:1036900083A68704E3D6C6FE83A6470423A8D704DF
:1036A0006FF0CFA533079F01131727003387E6007C
:1036B0000327C701E366A7D693E909026FF09FA627
:1036C00033079F01131727003387E6000327C7013D
:1036D000E368A7D493E909046FF0DFA433079F01DF
:1036E000131727003387E6000327C701E36AA7D231
:1036F00093E909106FF01FA333079F0113172700E9
:103700003387E6000327C701E36CA7D093E90908D4
:103710006FF05FA123890184B7070300130710002E
:1037200023AEE7006FF01FBF930B4005B30B74038C
:1037300003A5040393050106EF20C00983A7818236
:1037400093050106B387770123A0A70403A54403CB
:10375000EF20400883A7818293050106B387770194
:1037600023A2A70403A58403EF20C00683A58182BA
:1037700013172400B38B750123A4AB0423A60B04F9
:103780006FF00F95370703000327070313778700B0
:10379000E30607B203A781828326470A03260705AB
:1037A000E35ED6B08326470A2328D7046FF00FA51F
:1037B00003C6F70AB70781FF938707F82320F106AE
:1037C000930700F81376F60F2312F106231E010467
:1037D000230F010493080000630A06081305C006BE
:1037E0003305A402370F010037180000130F0FF044
:1037F000938EC4032326E10193870404130F98BF1B
:1038000093060D0013070000B7080300930510008E
:1038100013032000130E4000130C80001308688D62
:10382000938B0E0083AE070063C40E0A83AE88003C
:1038300083AF0600B38EFE416370DA03931E170058
:10384000930F0106B38EDF0123906E01930EC10525
:10385000B38EEE002380BE00130717009387870006
:1038600093864600E360C7FC8348C1051317240014
:103870003308870083A5818213182800930600006F
:1038800033088800130E1000B307D80013951600F4
:10389000130301069387C7003305A30093972700FE
:1038A000938616001303C105B387F5003303D300D5
:1038B000638808000315050023A8A7006302C6312A
:1038C000639456016FF0CF80834803006FF0DFFBF5
:1038D00083AE070093DE8E4093FEFE0F638ABE1216
:1038E00063806E0C63865E1B638ACE3963888E218B
:1038F000930F90006384FE27930FA0006380FE2F38
:10390000930FB0006388FE33930F00016396FE3F70
:1039100083AF0700931E370083AC8182B38EEE0025
:10392000939E2E002328F101B38EAE0083A3C7FF20
:10393000B38EDC0183A2C7FF834C010183AFC7FFB5
:1039400093D38301238A9E2993D20241A38A7E289E
:1039500093F2F20F93DF8F4093FFFF0F238B5E28CC
:10396000238CFE2923A007006FF01FEF1306F01829
:1039700023ACC18A6FE0DFDD9306F01863F4C60064
:103980006FE01FDC130616006FF09FFE6364C50036
:103990006FE01FDB1305150023ACA18A6FE05FDB2E
:1039A00083A2070083AEC7FF931F370093F2F20F85
:1039B00093DE0E4193FE0EF0B3EE5E00B38EEE0387
:1039C00083A28182B38FEF00939F2F00B38FAF004C
:1039D000B38FF20193DECE4023A6DF2B83AEC7FF69
:1039E00083A2C7FF93DE0E4193FEFE0F93F202F017
:1039F000B3EE5E00939E0E0193DE0E41B38E0E0376
:103A000093DECE4023A8DF2B23A007006FF0DFE476
:103A100083A2070083AEC7FF9303010693F2F20F60
:103A200093DE0E41931F170093FE0EF0B38FF30148
:103A3000B3EE5E002390DF01930EC105B38EEE005E
:103A40002380BE0083AE88009312370083AF81824B
:103A500023A0D60183AEC7FF83A3C7FFB382E200D2
:103A600093DE0E4193FEFE0F93F303F09392220038
:103A7000B3EE7E00B382A200939E0E0193DE0E4150
:103A8000B38F5F0023A2DF2B23A007006FF0DFDCE2
:103A900083A3070083A2C7FF931E370083AF8182F1
:103AA000B38EEE0093D20241939E2E00B38EAE00F1
:103AB00093F202F093F3F30FB38FDF01B3E27200DE
:103AC00023A45F2A83AEC7FF83A2C7FF93DE0E4104
:103AD00093F202F093FEFE0FB3EE5E00939E0E0192
:103AE00093DE0E419302601AB38E5E0293DECE40E7
:103AF00023AADF2B23A007006FF01FD6E314B6E63E
:103B0000E31207E683A3070083AF0B0083AE0B002D
:103B100083A20B0093DF0F4193DE0E4193FEFE0F55
:103B200093F202F0B3EE5E0093FF0FF093F3F30F06
:103B30002311D107B3EF7F00930E10102310F1076C
:103B4000231ED10583AE88002320DD0183AE8800CB
:103B50002322DD0123A007006FF01FD0E314B6E09D
:103B6000E31207E083AF070083AE0B00230FC1040D
:103B700093FFFF0F93DE0E4193FE0EF0B3EEFE01B6
:103B80002312D10783AE880083AF81822324DD0115
:103B900083AE0B0083A20B00B38FAF0093DE0E4108
:103BA00093FEFE0F93F202F0B3EE5E00939E0E01C1
:103BB00093DE0E4123A2DF2B23A007006FF0DFC9A5
:103BC00093074005B307F40283160106B387F50097
:103BD00023A2D70423A4D7046FE09FCFE314B6D861
:103BE000E31207D883A2070083AE0B0083AF818264
:103BF00093F2F20F93DE0E4193FE0EF0B3EE5E00F1
:103C0000B38FAF0023A4DF2D83AE0B0083A20B0084
:103C100093DE0E4193FEFE0F93F202F0B3EE5E00D0
:103C2000939E0E0193DE0E4123A6DF2F23A00700F3
:103C30006FF09FC2E318B6D2E31607D283A2070043
:103C400083AE0B0083AF818293F2F20F93DE0E41BD
:103C500093FE0EF0B3EE5E00B38FAF0023A4DF2B14
:103C600083AE0B0083A20B0093DE0E4193FEFE0F8A
:103C7000A38CDF2923A007006FF01FBE83A20700DB
:103C800083AFC7FF83AEC7FF83A3C7FF93DF0F4197
:103C900093DE0E4193F303F093FEFE0FB3EE7E002E
:103CA00093F2F20F93FF0FF0939E0E0193DE0E41FD
:103CB000B3EF5F00B38FDF4193026067B38F5F02A2
:103CC0009312370083A38182B382E2009392220091
:103CD000B382A200B38253009303A098B38E7E02F6
:103CE00093DFCF4023A6F22B93DECE4023A8D22B26
:103CF00023A007006FF05FB6930F10016394FE07D7
:103D000083A3070083ACC7FF83AFC7FF931E3700B1
:103D1000B38EEE0093DF0F412328F10183AF818240
:103D2000939E2E00B38EAE0083A2C7FFB38EDF0139
:103D3000832F010193F202F093F3F30F93FFFF0F30
:103D4000B3EF5F00A38B7E28939F0F0193D38C0169
:103D5000238D7E2893DF0F0123AEFE2923A00700C9
:103D60006FF09FAF930F2001E39EFEBF83AE07006D
:103D700083A2C7FF83ACC7FF93FEFE0F2328D101A8
:103D8000B70EFF00B3FEDC01832C010183A3C7FF44
:103D900093D20241B3EEDC01832CC1009393030163
:103DA000931F3700B3F29201B3EE5E00B70200FF3B
:103DB000B3F25300B3E25E00B38FEF0083AE8182B3
:103DC000939F2F00B38FAF00B38FFE0123A05F2A14
:103DD00023A007006FF05FA81306F6FF6FF05FB92E
:103DE000130101F32324810C2320210D130405006A
:103DF00013890500130620029305000013056102D4
:103E00002322910C2326110C232E310BEF10502965
:103E1000930760312312F1029304810263040408C2
:103E2000930504001306000213850400EF50107F71
:103E30009305400213054102EFD0CFEE9309050030
:103E400063020504B707030003A6870037270900AC
:103E5000B70603001307F77B83A78600B387C74025
:103E6000E37CF7FE6306040613058104EFD0DFD67A
:103E70009309050063060500834781046388070AE8
:103E8000930900008320C10C0324810C13850900D1
:103E90008324410C0329010C8329C10B1301010D5B
:103EA00067800000938704001306C103B706030070
:103EB00003A7060193871700A38FE7FEE39AC7FEC7
:103EC00093071000A302F102930580016FF09FF6A3
:103ED0009305000213054100EFD01F8893090500E8
:103EE000E30205FA13058104EFE04F9B93054100BF
:103EF0001305810413060002EFE00FA1938504006F
:103F00001305810413064001EFE00FA09305410261
:103F10001305810413063000EFE00F9F930509009D
:103F200013058104EFE00F9F6FF0DFF51306000229
:103F30009305040013050900EF50506E6FF09FF4D5
:103F4000130101F0232C810E2328210F13040500F7
:103F50002326310F1309060093890500130620025A
:103F60009305000013056105232A910E2324410FB8
:103F7000232E110E93840600130A0700EF1050122F
:103F800093078000230AF104A30A8104230B31055F
:103F900093772400638407001389040013741400CA
:103FA0006314040093040A0013058107232401020B
:103FB000232601022318010223090102232E0100F6
:103FC0002320010223020102EFE04F8D13060002BD
:103FD0009305090013058107EFE00F939385040013
:103FE0001306000213058107EFE00F92130640004D
:103FF0009305410513058107EFE00F91130680003B
:104000009305810213058107EFE00F90130630003E
:104010009305010313058107EFE00F8F9385019F3F
:10402000130610009385850013058107EFE0CF8DFF
:10403000130640009305010213058107EFE0CF8CC2
:10404000130620009385019F13058107EFE0CF8BB6
:10405000130620009305E10113058107EFE0CF8AE5
:104060009305410313058107EFE0CF8A93054000D4
:104070006300040613054105EFD0CFCA630A0502A9
:10408000B707030003A6870037570500B7060300EC
:104090001307F77283A78600B387C740E37CF7FE58
:1040A0009305000213058107EFD00FEB631E050295
:1040B0008320C10F0324810F8324410F0329010FA3
:1040C0008329C10E032A810E1301011067800000AD
:1040D00093050A001306000213058105EF501054E2
:1040E000930540026FF01FF92326A100EFD05F95E2
:1040F0009307810713074103930581090325C10035
:104100006F008000E386B7FA03C607008346070006
:104110009387170013071700E306D6FE1305000068
:104120006FF01FF9130101FC93070600231701002C
:10413000A306A1002307B100130600029385070020
:104140001305010193078000232C8102232E110205
:10415000138406002306F100EF50504C93054002F3
:104160001305C100EFD00FBC63080502B7070300B9
:1041700083A5870037570500370603001307F7723A
:1041800083278600B387B740E37CF7FE93050002E0
:1041900013050400EFD04FDC8320C1030324810307
:1041A0001301010467800000130101FD232E31017A
:1041B000232A5101B7A9000023248102232291025E
:1041C00023202103232C4101232611021304000084
:1041D00093042000370903009389F9C3938A019F50
:1041E000130A3000930540001305C1002316910007
:1041F00023078100A3070100EFD0CFB263000502BF
:104200000327890083278900B387E740E3FCF9FE91
:104210009305400013058100EFD00FD493071400DD
:1042200093F7F70F63009404630E440563040404DA
:10423000130760016386E700138407006FF09FFA9D
:104240008320C10203248102832441020329010245
:104250008329C101032A8101832A4101130101033A
:1042600067800000032781001384070023A2EA006F
:104270006FF05FF7032781001384070023A0EA0093
:104280006FF05FF603478100138407002384EA0080
:104290006FF05FF5130101FEB787FFFF232C81004C
:1042A0001317350013840500938727101305C100E9
:1042B00093054000232E11002316F1002307E1008F
:1042C000A3070100EFD00FA663080502B70703009C
:1042D00003A6870037A70000B70603001307F7C33C
:1042E00083A78600B387C740E37CF7FE93050002EF
:1042F00013050400EFD04FC68320C10103248101C0
:104300001301010267800000130101FEB787FFFF60
:10431000232C810013173500138405009387272071
:104320001305C10093054000232E11002316F10050
:104330002307E100A3070100EFD0CF9E6308050229
:10434000B707030003A6870037A70000B7060300DE
:104350001307F7C383A78600B387C740E37CF7FE44
:104360009305000213050400EFD00FBF8320C101A5
:104370000324810113010102678000001315350039
:104380009317050193D70701130101FE138605005A
:104390001305200093850700232E1100EFD08FF81E
:1043A000630E0502B707030003A6870037770600F0
:1043B000B70603001307F78983A78600B387C740B2
:1043C000E37CF7FE1305F100EFD01F8163060500C3
:1043D0008347F10063840700130500008320C101B7
:1043E000130101026780000013153500B365B500A5
:1043F00093950501130101FE93D5050113052000D6
:10440000232E1100EFD0CFEC630E0502B707030097
:1044100003A6870037770600B70603001307F7895E
:1044200083A78600B387C740E37CF7FE1305F1003E
:10443000EFD08FFA630605008347F100638407001D
:10444000130500008320C1011301010267800000F1
:10445000130101FE2307A10093075021930540009B
:104460001305C100232E11002316F100A30701003C
:10447000EFD04F8B630C0502B707030003A687003C
:1044800037970600B70603001307F7FA83A78600DD
:10449000B387C740E37CF7FE1305B100EFD0CFF33D
:1044A000630605000345B100133515008320C101E3
:1044B00013010102678000001385019F67800000DF
:1044C0009307805DB307F50203A88183138381936B
:1044D00093182500330E1301B307F80083C6F73491
:1044E00083CEE73403C7073503C617359397860095
:1044F000B3E6D70193170701B3E7D7001316860178
:104500003366F60023200E00930706006350C00EAA
:104510001307100093D717409306070013071700DF
:10452000E39A07FE330313011387B60093071000C5
:104530002320D3003397E70093571600B387E70093
:1045400033D6C7021307805D93870194B3871701A1
:1045500013838192B30613013305E50223A0C7003C
:104560003305A800034735350348253583474535CE
:1045700003465535131787003367070193970701E3
:10458000B3E7E700131686013366F60023A00600A2
:104590006354C00613070600930710001357174013
:1045A0009386070093871700E31A07FE330313016E
:1045B0001387B600930710002320D3003397E7003A
:1045C00093571640B387E70033C6C702938701931A
:1045D000B3881701939545009307803EB3D5F50244
:1045E00023A0C80023A4B19467800000B71700007F
:1045F000138707806FF05FF4B717000013870780F9
:104600006FF01FFC9307805D3305F50203A78183DC
:1046100093074009B385F502B385A500B305B7003C
:1046200083C7F53703C5E5379397870033E5A700C0
:10463000678000001308805D3308050383A8818329
:10464000338708018347F7378346E7379397870017
:10465000B3E7D70063FCB7040346D7368347C736B2
:1046600013050000131686003366F6001306F6FFE6
:10467000630A0602130340096F0080006376C502D7
:1046800013051500B3076502B3870701B387F80068
:1046900003C7F73783C6E73793178700B3E7D70019
:1046A000E3EEB7FC678000006780000013050000A0
:1046B000678000009307805DB307F50283AE8183B6
:1046C000B387FE0003C7B73683C8A7361317870022
:1046D00033671701630A071C130101FE232E8100B3
:1046E00083C8773503C3673503CF873583C79735CD
:1046F00093988800B3E86800131F0F01336F1F0100
:104700009397870123240100B3E7E7018328810001
:10471000139FC50093D55700330FBF0093D74700B1
:104720009305F7FF335FFF0263F6B8041303C02E4F
:10473000330365026F008001832781009387170090
:104740002324F1008327810063F6B70283278100C9
:10475000B307F3009387171B93971700B387FE00E7
:1047600003C7F70083C8E70093178700B3E7170173
:10477000E374FFFC9307C02E3305F5028325810007
:10478000032781008327810093080000130E900007
:10479000B305B5009385051B3307E500B307F500A6
:1047A000939515001307171B9387071BB385BE004E
:1047B000131717009397170003C3F5003387EE0014
:1047C000B387FE0003C4E50083CFF7008345F700FD
:1047D0008343E70083C2E70013138300336383003E
:1047E0009397850013978F00330F6F40B3E77700DF
:1047F00033675700B387E7401343FFFF1353F34179
:104800002326F1009307A00433736F003306F602EA
:104810006F00800083AE81838325810093973800E9
:1048200003278100B387C700B387A700B385B7000C
:104830003387E7009385851B1307971B9395150016
:10484000131717003387EE00B385BE0083CE350102
:104850008347370103CF25018345270193978700BD
:1048600013978E003367E701B3E7B700B387E740DC
:10487000B38767028325C100832EC100938646005B
:1048800093D5150093881800B387B700B3D7D70323
:10489000B387E70023AEF6FEE39EC8F70324C10109
:1048A00013010102678000006780000013182500D3
:1048B00093860194B386060183A7060093D525004D
:1048C000B387F50213878193330707010327070096
:1048D000930510009306700013085700B395050167
:1048E00013076700B385B700B3D5E50093D78500FC
:1048F00063E8F6069387170093972700B307F6003F
:1049000083A6C7FF03A7070093F5F50F3307D7402A
:10491000B305B70293D58500B385D5009307805DB5
:104920003305F50283A78183B387A70083C6373594
:1049300003C6273503C7473503C557359397860008
:10494000B3E6C70093170701B3E7D7001315850136
:104950003365F5003305B5021355E50067800000A7
:10496000832506026FF09FFB371701001307C7A6C8
:104970001386C19F1303E700930760051308E00344
:1049800093080000930530006F00C0000348370013
:1049900083452700B307F840B38615419397A700D6
:1049A00093D81640B38717011307270063840600C6
:1049B000B3C6D70213064600232ED6FE9388050001
:1049C00093070800E314E3FC931625001387419234
:1049D0009387C191B387D7003305E5001307500CC7
:1049E00023A0E700930710002300F5006780000074
:1049F000130101FD2324810223229102232E310180
:104A0000232C41012326110223202103232A5101B3
:104A10002328610123267101232481010328060034
:104A200093874192B307F5009304050003C507007F
:104A30009357F8411304060033C607013306F640C6
:104A4000138A050083A9818363060534930500005A
:104A5000B71701001305000093956500138EC7A6D4
:104A6000930800009387C7A613038000130815005E
:104A70006356B62893971800330EFE009387C19FA4
:104A8000034B0E0093982800B388170183A70800F2
:104A9000131B6B00330B6641330BFB0283471E0075
:104AA00037160000939B240093973700330BCB00FD
:104AB000135BDB40330BFB00639C0624232264035F
:104AC0009306805DB386D40203298401032C8400FD
:104AD00083254400832AC400B386D90003C77636F1
:104AE00083C76636131787003367F7001317F7007D
:104AF0006354270113090700232E24016352B030A9
:104B000013060A0013850400EFF05FDA935E254078
:104B10001306805D3386C4022328A40003AE81946B
:104B20000323840283270402330889419348F8FF52
:104B300093D8F841338C8A413386C9000345F63552
:104B40000347E6358345063683461636131585003A
:104B50003365E50013970501B365A7001397860138
:104B60003367B700330767020345B6350343A635FD
:104B70008345C6358346D6351315850033656500F4
:104B800013960501B365A600139686011357874057
:104B90003307F700330767033366B6009385019345
:104BA000B385750103AF050093858192B38B7501C1
:104BB00003A50B009357874037078000B34FF702D8
:104BC000B37618011307A5FF93D686401303100090
:104BD0003313E3001305B5FF13084A0093050000E3
:104BE00093088000B387D7033306C603B387874192
:104BF00093D787403387F60393564640B387F60230
:104C00001357F7403307E7039387070893D7874085
:104C1000B38757012326F400330767003357A700F3
:104C2000832608001386150013084800636CD7120A
:104C300093050600E31616FF130700409306805DF8
:104C4000B384D4023786FFFF3306C90033A6C700FA
:104C50003329F90013461600B389990003C5F934C6
:104C600003C8E93483C5093583C619351315850092
:104C70003365050193950501B3E5A500939686017B
:104C8000B3E6B6003387E6022306C402A306240374
:104C900013572700232AE40003C7993683C68936B1
:104CA000131787003367D7001317F700B327F700F0
:104CB0002307F4028320C1020324810283244102DA
:104CC000032901028329C101032A8101832A4101A9
:104CD000032B0101832BC100032C8100130101036D
:104CE0006780000083C507009308050013050800CE
:104CF0009395650013081500E34EB6D693872700F9
:104D0000E31268FE130B0010939B2400E38806DA7D
:104D1000B7170000938607FA9307C04363FCE602C7
:104D2000374600001306F6E79307C04C6364E602BB
:104D30009387C191B387770103A60700B307D740D4
:104D400037270000B387C702B387E70093D7E70090
:104D50009387C743B307FB0213870720135BA74062
:104D60006FF0DFD513962500330ACA0003260A0028
:104D70006374C700130706003307C7401317770093
:104D8000B386C6403357D702939575003307B700F3
:104D90006FF0DFEA9306805DB386D402B386D90054
:104DA00003C7363683C5563603CB263603C546368B
:104DB0001317870093968500336B6701B3E6A6004F
:104DC000630A08029307001063D2C7043717000074
:104DD00013070790130B0010634EC700938606F06D
:104DE0003307C7403387E602130707401357B7401E
:104DF000130B071023226403939B24006FF05FCCF6
:104E0000930E0000130500006FF09FD03307DB40C6
:104E10003386C7403307C702939B24001307070854
:104E200013578740330BD700232264036FF05FC909
:104E3000032EC50063020E3E834E1E0083470E0004
:104E400083280500939E8E00B3EEFE0063F4BE3E01
:104E500013072E0113080000639808006F00003E3E
:104E6000130727016300181B8347170083460700B9
:104E70001308180093978700B3E7D700E3E2B7FE63
:104E80006302181993173800B38707019397170027
:104E9000B307FE0083CE170003C70700939E8E0062
:104EA000B3EEEE0003C7370083C6270093178700D1
:104EB000B3E7D70063F6C73A637E181313071800E9
:104EC00093173700B387E70093971700B307FE00E7
:104ED000130308006F00400163FC1511938727013D
:104EE000639ADE021383050003C7370083C52700DA
:104EF00083C6170003CF0700131787009396860019
:104F00003367B700B3E6E60193051300E366C7FC19
:104F1000638EDE2E6370130F8347A5006394070C26
:104F200083274500638E672E93163300B386660091
:104F300093961600B307DE0003C7570083C54700EA
:104F4000131787003367B700630C030183C537006D
:104F500003C8270093958500B3E505016368B61083
:104F60002318E50003C7770083C66700131787007F
:104F70003367D7002319E50003C7970083C687006E
:104F8000131787003367D700231AE50003C7B7005C
:104F900083C6A700131787003367D700231BE500DC
:104FA00003C7D70083C6C700131787003367D7002E
:104FB000231CE50003C7F70083C6E700131787002B
:104FC0003367D700231DE50003C7170183C6070118
:104FD00093178700B3E7D700231EF500930710004F
:104FE0002305F5002314C500232265006780000017
:104FF000E392DEF28347A5001383F8FFE39407FEF4
:105000006FF01FF21388F8FF9317380033870701FA
:10501000131717003307EE008346170003470700F6
:1050200093968600B3E6E60063FCB61C6300082492
:10503000B3870701939717009387E7FEB307FE0036
:105040006F00C0009387E7FE6302081E03C71700C6
:1050500083C507001308F8FF131787003367B700ED
:10506000E302D7FE930E07006FF0DFE39386E6FEC0
:10507000330EDE0083463E0003482E0093968600E2
:10508000B3E60601E38ED5EC3308D64013180801C9
:10509000B385D540B356B80283455E0003484E0041
:1050A00093958500B3E505013387E54093960601A6
:1050B00093D606013307D702135707013387E5401C
:1050C0002318E50003C7770083457E0003C8670007
:1050D00083486E009395850013178700B3E515018B
:1050E000336707013387E5403307D70213570701BA
:1050F0003387E5402319E50003C7970083459E00E9
:1051000003C8870083488E00939585001317870096
:10511000B3E51501336707013387E5403307D7024D
:10512000135707013387E540231AE50003C7B7008B
:105130008345BE0003C8A7008348AE009395850051
:1051400013178700B3E51501336707013387E5407F
:105150003307D702135707013387E540231BE500C8
:1051600003C7D7008345DE0003C8C7008348CE00CD
:105170009395850013178700B3E515013367070181
:105180003387E5403307D702135707013387E540DC
:10519000231CE50003C7F7008345FE0003C8E700B2
:1051A0008348EE009395850013178700B3E515013A
:1051B000336707013387E5403307D70213570701E9
:1051C0003387E540231DE50003C7170183451E0112
:1051D00003C8070183480E01931787009395850044
:1051E00033E71501B3E70701B307F740B387D702E9
:1051F00093D70701B307F740231EF5006FF01FDEBA
:1052000093070E00130800006FF0DFC91383050039
:10521000E36413D16FF01FDE2322050067800000D6
:1052200083578500E392C7D06FF0DFDB93070E0052
:105230006FF05FC7130800006FF09FC48346FEFE47
:105240008347EEFE1388080093968600B3E6F600C7
:10525000E3F2B6DA1308F0FF930780FF6FF05FDD2B
:1052600013030800E36A13CB6FF0DFD883473E00D7
:1052700003472E001303000093978700B3E7E7006E
:10528000E3EEC7C26FF05FC9130101FB2324810461
:10529000232611042322910423202105232E3103E8
:1052A000232C4103232A510323286103232671035E
:1052B00023248103232291032320A103232EB10160
:1052C0008327C500130405000326C505032805062A
:1052D000832E450663840740035D8501035C050159
:1052E00083592501035A450103596501835BA501D3
:1052F000835AC50123AAA1838347A500135C1C0020
:1053000093D91900135A1A001359190023A871834D
:1053100023A6518323268507232435072328450701
:10532000232A2507638A072C93D97900135C7C0014
:10533000135A7A00B3893903330C8C0393D949008B
:10534000232E3505330A4A03135C4C0023208507BE
:10535000135A4A0023224507630E0640832545035E
:105360008357250393060000139505013365F50067
:1053700093D505012322D10123200101EF20000054
:105380003385A9020328010013030000832E410086
:10539000935C0501931D050193978C0093DF8D01AC
:1053A000B3EFF7016302083E8325C4038357A403C8
:1053B00013060800139505013365F50093060000F8
:1053C00093D50501232461002322F1012320D1017B
:1053D000EF10D07A3305AC02832E010013070000D2
:1053E000832F410003238100135B05019314050102
:1053F00093178B0013DF840133EFE70163800E3ACC
:105400008325440483572404930600001395050163
:105410003365F50013860E0093D505012326E100C0
:105420002324E101232261002320F101EF101075F4
:105430003305AA02832F010003234100032F8100BB
:105440000327C10093070000135E050193180501AF
:1054500093168E0093D28801B3E256002305040010
:10546000032884023305F040930730001358780076
:10547000330808032324F404B3056040B306E04076
:1054800037030100832E840593574800B38FF741FB
:1054900033B6F701B385C540B385A503338FE74124
:1054A00033B7E701B386E64033885740B3B7070107
:1054B000B307F5403386AF0333BDAF03B30DB60179
:1054C00033B6CD0013D78D002328B403B385A501CF
:1054D000B38595013306B6009315860133E7E500E1
:1054E000335C8703232AC40233077F03B304970086
:1054F00033065803B3B5E400232C9402B386760335
:10550000B308160133B6C8002320140533377F03D0
:10551000B38757033387E600330767013387E50016
:10552000232EE40233385803B3870701B387C7013A
:10553000B307F6002322F404635E6C16B706FFFF80
:105540006344DC221303F3FF330C834123268405D9
:105550001305090063F48E271317870193D4840081
:10556000B3649700B3D434033707010063DAE4105F
:10557000B706FFFF63C4D41E1307F7FFB3049740B9
:105580002328940463F29E249397870193D888007C
:10559000B3E81701B3D84803B707010063DAF80A84
:1055A0003707FFFF63C6E81A9387F7FFB3881741F1
:1055B000232A140563FE1E1F2326A4028320C10490
:1055C0000324810483244104032901048329C103A2
:1055D000032A8103832A4103032B0103832BC10286
:1055E000032C8102832C4102032D0102832DC10172
:1055F0001301010567800000832C4503032BC503BD
:10560000032E4504832D0503832485038328050485
:1056100013178B0093178E0093968C0093DF8D01E8
:1056200013DF840193D28801336FE701B3E257009F
:10563000B3EFF60113D38C0113578B0193578E01EF
:10564000138A0E0093090600130C08006FF01FE187
:10565000232A04049307000003270407930620006D
:105660002324D404B30EE940B38EFE0293DEAE00D1
:10567000B38EEE00E3F2AEF413850E006FF0DFF3AD
:105680002328040413070000032684068326040746
:10569000930510002324B404B386C6403387E60282
:1056A0001357A7003307C700E370A7EE13050700E1
:1056B0006FF09FED23260404930600000326C40622
:1056C00003258406232404043305C5403305D5028D
:1056D0001355A5003305C5006FF01FE8832C450363
:1056E000032BC503032E4504832D05038324850363
:1056F0008328050403AD418383AB018313178B001B
:1057000083AAC18293968C0093178E0093DF8D013C
:1057100013DF840193D28801336FE701B3E25700AE
:105720002326050623280506232A0506B3EFF601DE
:1057300013D38C0113578B0193578E01138A0E00DC
:1057400093090600130C0800130900006FF05FD1E5
:10575000B70802009388F8FF6FF09FE5B7040200D6
:105760009384F4FF6FF0DFE1370C0200130CFCFFB1
:105770006FF0DFDD930F000013030000930D0000B6
:10578000930C0000E31208C2130F0000130700007F
:1057900093040000130B0000E3940EC69302000074
:1057A0009307000093080000130E00006FF01FCB5A
:1057B0009398A800B3D7D8036FF01FEA131CAC006E
:1057C000B356DC036FF09FEF9394A40033D7D40358
:1057D0006FF09FEB93561540371701001307C7A7CB
:1057E000139306011353034113080706930780011F
:1057F0001305F0FF83180800139E0701135E0E4186
:1058000013961700634213039387F7FF1308C8FF2B
:10581000E392A7FE9307100037F5FFFF23A0F500E2
:10582000130505C067800000130616001316160046
:105830003306C7001308800103150600630C0E052C
:105840009387170093972700B307F70003D7070044
:1058500083D7270023A00500B386E6403305F54033
:10586000939606011315050193D60641135505417C
:105870003385A602B388E8409398080193D808417D
:10588000334515033385A70013150501135505414D
:10589000678000009307200023A0F50067800000C8
:1058A0001303F00013070500637EC3029377F7002C
:1058B0006390070A63920508937606FF1376F60055
:1058C000B386E6002320B7002322B7002324B700C5
:1058D0002326B70013070701E366D7FE631406000B
:1058E00067800000B306C34093962600970200002D
:1058F000B38656006780C6002307B700A306B7002B
:105900002306B700A305B7002305B700A304B7001B
:105910002304B700A303B7002303B700A302B70013
:105920002302B700A301B7002301B700A300B7000B
:105930002300B7006780000093F5F50F939685006C
:10594000B3E5D50093960501B3E5D5006FF0DFF61A
:105950009396270097020000B386560093820000BA
:10596000E78006FA93800200938707FF3307F7402A
:0C5970003306F600E378C3F66FF0DFF3B7
:10597C00130101ED232A511183A74182232EB10F6C
:10598C002326111223248112232291122320211366
:10599C00232E3111232C411123286111232671113F
:1059AC0023248111232291112320A11123A007006C
:1059BC0003A78182930730002322070037070300D7
:1059CC008324470193F434006394F400930420007F
:1059DC00EFB01FB1EFC00F86B707030003A6870017
:1059EC00B7870100B70603009387F76903A7860002
:1059FC003307C740E3FCE7FEEFB01FFCEFE00FFA04
:105A0C0003A48182EFE09FAA83453500034E050075
:105A1C000343150083482500034845000346550001
:105A2C0083466500034775002302C403A302640286
:105A3C0023031403A303B40283A581822304040368
:105A4C00A304C4022305D402A305E4029385051B19
:105A5C0013050000EFE05F836312050EEFB09FFDAE
:105A6C0083A78182370700FF83A6471B6398E60054
:105A7C00371700141307178023AAE71A3757414426
:105A8C0013071724232CE10437675F44130757844B
:105A9C00232EE10437574943130757642320E106AB
:105AAC0037674441130757F483A641822322E1064A
:105ABC001307100023A2E70083A7060093F7170033
:105ACC00E38C07FE37070300832707021306000148
:105ADC0093E787002320F70203A4018213058105B5
:105AEC0093050400EF40402A6312050403460401A9
:105AFC00834614010347240183473401939686009F
:105B0C00B3E6C600131707013367D70093978701D5
:105B1C00B3E7E7001307100003A68182638AE7024C
:105B2C00930730002322F6006F00000083A78182C8
:105B3C001307200023A2E7006FF01FFF83A58182CB
:105B4C00130510009385051DEFE00FF46FF01FF1A6
:105B5C0083458401834694010347A4018347B40120
:105B6C0093968600B3E6B600131707013367D70088
:105B7C0093978701B3E7E700130770006388E7008A
:105B8C00930730002322F6006FF01FFA8325461B83
:105B9C000345C4018346D4010347E4018347F40160
:105BAC0093968600B3E6A600131707013367D70058
:105BBC0093978701B3E7E7006380F5020327461B41
:105BCC00B70700FF938707106308F700930740009F
:105BDC002322F6006FF05FF513058108EFC04FCB61
:105BEC0083A50182371600001306A6C3130581088E
:105BFC00EFC0CFD09305810613058108EFC0CFD03D
:105C0C0083A5018283A705026382073C03A48182DA
:105C1C00130680009385050213054402EF40C0165D
:105C2C006312053A93070004A388F184EFB0DFD820
:105C3C0003C5118593068106138606009305700033
:105C4C00EFE08FCD13040500232CA102EFB09FDEF3
:105C5C006300043803A50182B71700009387A7C31C
:105C6C003305F5001306000293058106EF40C011C1
:105C7C0083A78182631205341307800023A2E700F7
:105C8C00370703008325870037574C00370603007E
:105C9C001307F7B383268600B386B640E37CD7FEA2
:105CAC001307100223A0E70003A4018203A9818239
:105CBC00130600029305440613058915EF400027CF
:105CCC00034604068346140603472406834734061A
:105CDC0093968600B3E6C600131707013367D70007
:105CEC0093978701B3E7E700232AF91483475408F5
:105CFC00130600029305040493F7F70F232CF916EF
:105D0C000347840883479408130509199397870060
:105D1C00B3E7E700232EF916034884038346940364
:105D2C000347A4038347B40393968600B3E60601A6
:105D3C00131707013367D70093978701B3E7E70081
:105D4C002320F91803484403834654030347640390
:105D5C008347740393968600B3E606011317070175
:105D6C003367D70093978701B3E7E7002322F9182D
:105D7C000348C4038346D4030347E4038347F40373
:105D8C0093968600B3E60601131707013367D70015
:105D9C0093978701B3E7E7002324F918034804031A
:105DAC0083461403034724038347340393968600E6
:105DBC00B3E60601131707013367D70093978701E2
:105DCC00B3E7E7002326F918EF4040168347540841
:105DDC0063E6F4008344540893F4F40FB7170100FE
:105DEC0023A49712130400009309805D1309C003C8
:105DFC0093049001B717010083A78712637AF41EEE
:105E0C009305A00F13050400EFE0CFEAB3073403AA
:105E1C0083A6018203A6818233072403B387F6008D
:105E2C0083C5A73283C6B73293968600B3E6B60015
:105E3C003307E600232ED70C03C6C73283C6D732EE
:105E4C0093968600B3E6C6002320D70E03C5670BD6
:105E5C0083C5770B03C6870B83C6970B9395850079
:105E6C00B3E5A500131606013366B60093968601BA
:105E7C00B3E6C6002322D70E03C5E70B83C5F70B89
:105E8C0003C6070C83C6170C93958500B3E5A500D4
:105E9C00131606013366B60093968601B3E6C60068
:105EAC002324D70E03C5A70B83C5B70B03C6C70B9B
:105EBC0083C6D70B93958500B3E5A5001316060191
:105ECC003366B60093968601B3E6C6002326D70E3A
:105EDC0003C6270C83C6370C93968600B3E6C60020
:105EEC00B3D696022328D70E03C6670C83C6770C4D
:105EFC0093968600B3E6C600232CD70E03C6470C38
:105F0C0083C6570C93968600B3E6C600232AD70E99
:105F1C0003C6870C83C6970C93968600B3E6C6001F
:105F2C0093968600232ED70E03C6C70C83C6D70CB8
:105F3C0093968600B3E6C600939686002320D7106E
:105F4C0003C6A70C83C6B70C93968600B3E6C600AF
:105F5C00939686002322D71003C6E70C83C6F70C52
:105F6C0093968600B3E6C600939686002324D7103A
:105F7C0003C6070D83C6170D93968600B3E6C600BD
:105F8C00939676002326D71003C6270D83C6370DAC
:105F9C0093968600B3E6C600939676002328D71016
:105FAC0003C7C73283C7D73293771700639A0702A8
:105FBC00130414006FF01FE41307500023A2E70032
:105FCC006FF09FB6930770002322F4006FF01FC68A
:105FDC0083A781821307600023A2E7006FF0DFB470
:105FEC0013050400EFE09F97130414006FF09FE07B
:105FFC00138DC199938741902326F1003704030038
:10600C009387418DB71300002324A1031389C190FA
:10601C00138A418F9389C18F938B418E138BC18EC1
:10602C001304041893040000930F805D2328F100DF
:10603C00938303FAB717010003A7871283A7018282
:10604C0063F2E4263387F4038326010113962400BC
:10605C00938503003386C6001385040093060D0058
:10606C003383E700834EC30C130C07000347D30C98
:10607C0083C0A70B03CFB70B03CEC70B83C8D70BBB
:10608C00131F8F00336F1F00131E0E01336EEE01B2
:10609C0013178700939888013367D701B3E8C801B9
:1060AC0093D85800131727013357170323A0E9007F
:1060BC00034EA30C0347B30C03CFA70B83CEB70B34
:1060CC0003C3C70B83C8D70B939E8E00B3EEEE01B0
:1060DC0013130301931787003363D30113978801BC
:1060EC00B3E7C7013367670013575700939727012E
:1060FC00B3D7E702032606002320FA00EFE0CFDA3D
:10610C0003A70182930F805DB782FFFF33078701DE
:10611C008345E70C8347F70C0345A70B0346B70BE6
:10612C008346C70B0347D70B131686003366A600AE
:10613C0093960601B3E6C600939787001317870161
:10614C003367D700B3E7B70013575700939727016E
:10615C00B3D7E702B716000037870000938306FA1F
:10616C002320F90063CAE7129307F7FF2320F900F5
:10617C0013074002B385E4028327090003A7418279
:10618C008326C10023A0F6009306E0013307B70075
:10619C002326F7002328F400B387F40303250A0011
:1061AC0003A7418203A601822320AB003307B7006B
:1061BC002328A70083A5090023A0BB00232AB7002E
:1061CC0013870700B307F60003C6270C83C7370CE9
:1061DC0093978700B3E7C70013069001B3D7C702A4
:1061EC00232AF40083A70182B387E70003C7A7081B
:1061FC0083C7B70893978700B3E7E7006398D70086
:10620C008327040093E717002320F4003387F4035B
:10621C0083A7018293066001B387E70003C7A70831
:10622C0083C7B70893978700B3E7E700639ED7004F
:10623C008327040093E727002320F400832704001E
:10624C0093E747002320F400930740023387F402BE
:10625C0083A741828326C1001304040A1309490051
:10626C00938646002326D100130A4A00130B4B00D9
:10627C0093841400B387E7001307C00423A4E70238
:10628C001307200223A6E70293894900938B4B0046
:10629C00130D4D026FF01FDAE3DC57EC232059008D
:1062AC006FF01FED83C5A70C03C7B70C03C5A70B75
:1062BC0003C6B70B83C6C70B83C7D70B1316860051
:1062CC003366A60093960601B3E6C6001317870043
:1062DC00939787013367B700B3E7D70013172701EC
:1062EC0093D75700B357F70203A6418237F7FFFF46
:1062FC00130707C0B7060300371901001309C912A9
:10630C0093040000138A061F138401A2130C40028D
:10631C00930B401F130BF01F130D000A9309805DA4
:10632C002322F60023AEF1803387E70023AEE18C05
:10633C0023A0F18E2324E60023AEF60283A7C18DA1
:10634C0023A0F60483A7018203C7470D83C7570D0B
:10635C0093978700B3E7E70023AAF6029306090098
:10636C0013890400B717010083A787126378F9100B
:10637C003307890383A7418283A406001305090010
:10638C002326D10093850400B387E70023AC970044
:10639C0023A00702EFB09FF6B38774038326C100D6
:1063AC009387071093D707016374FB009307F01FC3
:1063BC003307A9039305000033063903330747015C
:1063CC002320F70083A701823387C7000345A70D5D
:1063DC000347B70D131787003367A7002320E4008A
:1063EC00630607001306A60EB385C70033073903EF
:1063FC001306F0FF2322C4002314C400130610005C
:10640C002326B4002305C4001304840813080000D9
:10641C0013091900B387E70083C5670B03C6770B15
:10642C0003C7870B83C7970B131686003366B6001A
:10643C00131707013367C70093978701B3E7E7008A
:10644C00232EF4F89307A00F232CF4F893070000E5
:10645C00232A04FC232C04FC232E04FC2324F4FA0E
:10646C00232604FB2328F4FA232A04FB232CF4FA16
:10647C00232E04FB938646006FF0DFEEB706030075
:10648C0083A786021307300193E7070823A4F602BB
:10649C0083A7018283C7670893F7170063840700FB
:1064AC0013073003B717010083A787129397870050
:1064BC0093F70730B3E7E700370703002320F70211
:1064CC00EFB08FCF930581081305A000EFD01FE329
:1064DC00130905006308050E93048108B786B8ED0F
:1064EC001305410A138704009307F0FF93860632C5
:1064FC00032607001304000213F817009375160007
:10650C0093D717006304B800B3C7D7001304F4FF84
:10651C0013561600E31204FE13074700E31AE5FCBA
:10652C000327410A93C7F7FF639EE70803478108D7
:10653C00930710006318F708034791089307F000BE
:10654C0063E2E708EFB00FCFB717010003A3871280
:10655C0037060100B7060300930E00001306F6FF82
:10656C00B708FF001308000A9386C6191305C00369
:10657C009384340063086408838724000387340001
:10658C00330E040383C51400939787001317070178
:10659C0033771701B3F7C700B3E7E700B3E7B700EA
:1065AC00930E0900B305A4023307DE002320F70085
:1065BC0003A78182130414003307B700232AF710B2
:1065CC006FF01FFBEFB00FC7B717010083A787123F
:1065DC00638C070237070300232E071803A681825A
:1065EC0093061000232A061063F0F602232E0722CE
:1065FC0003A6818293062000232806146386D70005
:10660C00232E072CE3820EFC83A7818223AC070088
:10661C0023A0070223AE0700B727000093878780CB
:10662C0073900730EFB05FEBB7170100138507CA03
:10663C00EFB05FDB6316057AB7170100138507CA45
:10664C00EFB01FE4B71701001385C7CCEFB09FD98B
:10665C006300057837170100930607CA83A7818268
:10666C0003A60602130707CA8326C70423A8C7027A
:10667C003707030023A6D70283268700370D0300B4
:10668C002320D10203278700232C0100232601009D
:10669C002322E10203A747001367071023A2E70098
:1066AC009387418D2326F102938741812328F102A0
:1066BC009387418C2320F104B717010093870712AD
:1066CC002328F100B7E755AA9387D7EA232EF102C6
:1066DC00B7470F00938707242322F104B7A70700BD
:1066EC0093870712231401082324F10483A7418202
:1066FC000327C10383A70700638EE73003278D00B0
:10670C0083260102B7E7F505938707103307D740B7
:10671C0063EAE72E83A7418203A747071377270075
:10672C006308070003C70185137727006302076C12
:10673C0003A741828327470793F71700638C070051
:10674C0083C7018593F717006396070083A781829F
:10675C0023A8072803274707B79798002388E184C5
:10676C0003278D0083264102938707683307D740A0
:10677C0063F6E70283278D002322F1028327CD18CD
:10678C0093F717006386070083278103232CF100FE
:10679C008327C100938717002326F1000327C1002C
:1067AC009307702563E4E75A83278102832B010446
:1067BC001304CD18232EF100B71701009387C712CD
:1067CC00232AF100B70701009387F7FF0329010380
:1067DC00130C0000232AF10293070400930981088B
:1067EC0013040C00138B0700138C0B00B71701005C
:1067FC0083A78712637EF42813050400EFA09FC8BB
:10680C0083270101131A240093040500B387470161
:10681C0083A707006382A7269307805DB308F40261
:10682C0083A7018203A30B0013050400B387170190
:10683C002326110503CEA70B03C6B70B83C6C70BC4
:10684C0083C5D70B9317860033E6C70193970601D0
:10685C00B3E7C70093958501B3E5F50093D58500A3
:10686C00B385650293D52501EFD01FDC8326C101CA
:10687C00130605009385040013050400EFD0DFE236
:10688C0083A701828328C104B387170103C5670D51
:10689C0083C5770D03C6870D83C6970D9395850029
:1068AC00B3E5A500131606013366B6009396860170
:1068BC00B3E6C600638C061A83C5670D03C6770D55
:1068CC0083C6870D83C7970D131686003366B600F3
